{"abi":[{"type":"constructor","inputs":[{"name":"_baseFee","type":"uint96","internalType":"uint96"},{"name":"_gasPriceLink","type":"uint96","internalType":"uint96"}],"stateMutability":"nonpayable"},{"type":"function","name":"BASE_FEE","inputs":[],"outputs":[{"name":"","type":"uint96","internalType":"uint96"}],"stateMutability":"view"},{"type":"function","name":"GAS_PRICE_LINK","inputs":[],"outputs":[{"name":"","type":"uint96","internalType":"uint96"}],"stateMutability":"view"},{"type":"function","name":"MAX_CONSUMERS","inputs":[],"outputs":[{"name":"","type":"uint16","internalType":"uint16"}],"stateMutability":"view"},{"type":"function","name":"acceptSubscriptionOwnerTransfer","inputs":[{"name":"_subId","type":"uint64","internalType":"uint64"}],"outputs":[],"stateMutability":"pure"},{"type":"function","name":"addConsumer","inputs":[{"name":"_subId","type":"uint64","internalType":"uint64"},{"name":"_consumer","type":"address","internalType":"address"}],"outputs":[],"stateMutability":"nonpayable"},{"type":"function","name":"cancelSubscription","inputs":[{"name":"_subId","type":"uint64","internalType":"uint64"},{"name":"_to","type":"address","internalType":"address"}],"outputs":[],"stateMutability":"nonpayable"},{"type":"function","name":"consumerIsAdded","inputs":[{"name":"_subId","type":"uint64","internalType":"uint64"},{"name":"_consumer","type":"address","internalType":"address"}],"outputs":[{"name":"","type":"bool","internalType":"bool"}],"stateMutability":"view"},{"type":"function","name":"createSubscription","inputs":[],"outputs":[{"name":"_subId","type":"uint64","internalType":"uint64"}],"stateMutability":"nonpayable"},{"type":"function","name":"fulfillRandomWords","inputs":[{"name":"_requestId","type":"uint256","internalType":"uint256"},{"name":"_consumer","type":"address","internalType":"address"}],"outputs":[],"stateMutability":"nonpayable"},{"type":"function","name":"fulfillRandomWordsWithOverride","inputs":[{"name":"_requestId","type":"uint256","internalType":"uint256"},{"name":"_consumer","type":"address","internalType":"address"},{"name":"_words","type":"uint256[]","internalType":"uint256[]"}],"outputs":[],"stateMutability":"nonpayable"},{"type":"function","name":"fundSubscription","inputs":[{"name":"_subId","type":"uint64","internalType":"uint64"},{"name":"_amount","type":"uint96","internalType":"uint96"}],"outputs":[],"stateMutability":"nonpayable"},{"type":"function","name":"getConfig","inputs":[],"outputs":[{"name":"minimumRequestConfirmations","type":"uint16","internalType":"uint16"},{"name":"maxGasLimit","type":"uint32","internalType":"uint32"},{"name":"stalenessSeconds","type":"uint32","internalType":"uint32"},{"name":"gasAfterPaymentCalculation","type":"uint32","internalType":"uint32"}],"stateMutability":"view"},{"type":"function","name":"getFallbackWeiPerUnitLink","inputs":[],"outputs":[{"name":"","type":"int256","internalType":"int256"}],"stateMutability":"view"},{"type":"function","name":"getFeeConfig","inputs":[],"outputs":[{"name":"fulfillmentFlatFeeLinkPPMTier1","type":"uint32","internalType":"uint32"},{"name":"fulfillmentFlatFeeLinkPPMTier2","type":"uint32","internalType":"uint32"},{"name":"fulfillmentFlatFeeLinkPPMTier3","type":"uint32","internalType":"uint32"},{"name":"fulfillmentFlatFeeLinkPPMTier4","type":"uint32","internalType":"uint32"},{"name":"fulfillmentFlatFeeLinkPPMTier5","type":"uint32","internalType":"uint32"},{"name":"reqsForTier2","type":"uint24","internalType":"uint24"},{"name":"reqsForTier3","type":"uint24","internalType":"uint24"},{"name":"reqsForTier4","type":"uint24","internalType":"uint24"},{"name":"reqsForTier5","type":"uint24","internalType":"uint24"}],"stateMutability":"view"},{"type":"function","name":"getRequestConfig","inputs":[],"outputs":[{"name":"","type":"uint16","internalType":"uint16"},{"name":"","type":"uint32","internalType":"uint32"},{"name":"","type":"bytes32[]","internalType":"bytes32[]"}],"stateMutability":"pure"},{"type":"function","name":"getSubscription","inputs":[{"name":"_subId","type":"uint64","internalType":"uint64"}],"outputs":[{"name":"balance","type":"uint96","internalType":"uint96"},{"name":"reqCount","type":"uint64","internalType":"uint64"},{"name":"owner","type":"address","internalType":"address"},{"name":"consumers","type":"address[]","internalType":"address[]"}],"stateMutability":"view"},{"type":"function","name":"pendingRequestExists","inputs":[{"name":"subId","type":"uint64","internalType":"uint64"}],"outputs":[{"name":"","type":"bool","internalType":"bool"}],"stateMutability":"view"},{"type":"function","name":"removeConsumer","inputs":[{"name":"_subId","type":"uint64","internalType":"uint64"},{"name":"_consumer","type":"address","internalType":"address"}],"outputs":[],"stateMutability":"nonpayable"},{"type":"function","name":"requestRandomWords","inputs":[{"name":"_keyHash","type":"bytes32","internalType":"bytes32"},{"name":"_subId","type":"uint64","internalType":"uint64"},{"name":"_minimumRequestConfirmations","type":"uint16","internalType":"uint16"},{"name":"_callbackGasLimit","type":"uint32","internalType":"uint32"},{"name":"_numWords","type":"uint32","internalType":"uint32"}],"outputs":[{"name":"","type":"uint256","internalType":"uint256"}],"stateMutability":"nonpayable"},{"type":"function","name":"requestSubscriptionOwnerTransfer","inputs":[{"name":"_subId","type":"uint64","internalType":"uint64"},{"name":"_newOwner","type":"address","internalType":"address"}],"outputs":[],"stateMutability":"pure"},{"type":"event","name":"ConsumerAdded","inputs":[{"name":"subId","type":"uint64","indexed":true,"internalType":"uint64"},{"name":"consumer","type":"address","indexed":false,"internalType":"address"}],"anonymous":false},{"type":"event","name":"ConsumerRemoved","inputs":[{"name":"subId","type":"uint64","indexed":true,"internalType":"uint64"},{"name":"consumer","type":"address","indexed":false,"internalType":"address"}],"anonymous":false},{"type":"event","name":"RandomWordsFulfilled","inputs":[{"name":"requestId","type":"uint256","indexed":true,"internalType":"uint256"},{"name":"outputSeed","type":"uint256","indexed":false,"internalType":"uint256"},{"name":"payment","type":"uint96","indexed":false,"internalType":"uint96"},{"name":"success","type":"bool","indexed":false,"internalType":"bool"}],"anonymous":false},{"type":"event","name":"RandomWordsRequested","inputs":[{"name":"keyHash","type":"bytes32","indexed":true,"internalType":"bytes32"},{"name":"requestId","type":"uint256","indexed":false,"internalType":"uint256"},{"name":"preSeed","type":"uint256","indexed":false,"internalType":"uint256"},{"name":"subId","type":"uint64","indexed":true,"internalType":"uint64"},{"name":"minimumRequestConfirmations","type":"uint16","indexed":false,"internalType":"uint16"},{"name":"callbackGasLimit","type":"uint32","indexed":false,"internalType":"uint32"},{"name":"numWords","type":"uint32","indexed":false,"internalType":"uint32"},{"name":"sender","type":"address","indexed":true,"internalType":"address"}],"anonymous":false},{"type":"event","name":"SubscriptionCanceled","inputs":[{"name":"subId","type":"uint64","indexed":true,"internalType":"uint64"},{"name":"to","type":"address","indexed":false,"internalType":"address"},{"name":"amount","type":"uint256","indexed":false,"internalType":"uint256"}],"anonymous":false},{"type":"event","name":"SubscriptionCreated","inputs":[{"name":"subId","type":"uint64","indexed":true,"internalType":"uint64"},{"name":"owner","type":"address","indexed":false,"internalType":"address"}],"anonymous":false},{"type":"event","name":"SubscriptionFunded","inputs":[{"name":"subId","type":"uint64","indexed":true,"internalType":"uint64"},{"name":"oldBalance","type":"uint256","indexed":false,"internalType":"uint256"},{"name":"newBalance","type":"uint256","indexed":false,"internalType":"uint256"}],"anonymous":false},{"type":"error","name":"InsufficientBalance","inputs":[]},{"type":"error","name":"InvalidConsumer","inputs":[]},{"type":"error","name":"InvalidRandomWords","inputs":[]},{"type":"error","name":"InvalidSubscription","inputs":[]},{"type":"error","name":"MustBeSubOwner","inputs":[{"name":"owner","type":"address","internalType":"address"}]},{"type":"error","name":"TooManyConsumers","inputs":[]}],"bytecode":{"object":"0x60e0346100a657601f61131d38819003918201601f19168301916001600160401b038311848410176100ab5780849260409485528339810103126100a657610052602061004b836100c1565b92016100c1565b90606460c05260018055606460025560805260a05260405161124790816100d682396080518181816109fd0152610e5f015260a05181818161041f0152610e2d015260c0518181816107ef01526110700152f35b600080fd5b634e487b7160e01b600052604160045260246000fd5b51906001600160601b03821682036100a65756fe608060408181526004918236101561001657600080fd5b600092833560e01c91826201229114610b025750816304c357cb14610ae057816308e3898e14610a43578163356dac7114610a215781633d18651e146109dd5781635d3b1d30146108635781635fbbc0d21461081357816364d51a2a146107d45781637341c10c14610753578163808974ff1461071d57816382359740146107035781639f87fad714610526578163a21a23e414610443578163a410347f146103ff578163a47c76961461033f578163afc69b531461025a578163c3f909d414610225578163d7ae1d301461015c57508063e82ad7d4146101395763ed5eb06d1461010057600080fd5b3461013557806003193601126101355760209061012c61011e610b76565b610126610b91565b906111b1565b90519015158152f35b5080fd5b823461015957602036600319011261015957610153610b76565b50610c2b565b80fd5b838334610135578060031936011261013557610176610b76565b926001600160401b03610187610b91565b941680845260036020528284205490916001600160a01b039182168015610216578033036102005750507fe8ed5b475a5b5987aa9165e8731bb78043f39eee32ec5a1169a89e27fcd49815838596849384885260036020528288205460a01c908351921682526020820152a28252600360205281205580f35b8451636c51fda960e11b81529182015260249150fd5b508351630fb532db60e11b8152fd5b9050823461015957806003193601126101595750610a8c8260809351928352622625a060208401528201526182056060820152f35b838334610135578060031936011261013557610274610b76565b906024356001600160601b0392838216820361033b576001600160401b03168085526003602052828520549093906001600160a01b03161561032b57907fd39ec07f4e209f627a4c427971473820dc129761ba28de8906bd56f57101d4f89291848652600360205261031c83872092610316845460a01c946102f68387611196565b81546001600160a01b031660a09190911b6001600160a01b031916179055565b83611196565b8351928352166020820152a280f35b8251630fb532db60e11b81528690fd5b8480fd5b8284346101595760209283600319360112610135576001600160401b03610364610b76565b1680835260038552838320546001600160a01b039591908616156103ef578392919352600383528382205490835261039d84832061113a565b928451948660808701938060a01c8852858489015216908601526080606086015283518092528060a086019401925b8281106103d95785850386f35b83518716855293810193928101926001016103cc565b8451630fb532db60e11b81528390fd5b505034610135578160031936011261013557602090516001600160601b037f0000000000000000000000000000000000000000000000000000000000000000168152f35b8284346101595780600319360112610159578054906001600160401b03918281168381146105135760018491011680916001600160401b031916178255835190848201828110858211176105005785523382526020828101848152918452600381528584209251915160a01b6001600160a01b0319166001600160a01b0392909216919091179091559350541690817f464722b4166576d3dcbba877b999bc35cf911f4eaf434b7eba68fa113951d0bf848351338152a251908152f35b634e487b7160e01b845260418752602484fd5b634e487b7160e01b835260118652602483fd5b9050346106ff57816003193601126106ff57610540610b76565b90610549610b91565b926001600160401b03831692838652600390600360205260018060a01b039081848920541680156106ef578033036106d9575086610586916111b1565b156106ca578487526020849052828720939581169390875b8254808210156106985786836105b48487611037565b905490881b1c16146105c9575060010161059e565b91929394959697906000199283810190811161068557906105ff856105f161061d9489611037565b9054908a1b1c169187611037565b90919060018060a01b038084549260031b9316831b921b1916179055565b835490811561067257509160209593917ff9bc9d5b5733d904409def43a5ecc888dbdac9a95687780d8fd489d3bb3813fc979593019261065d8484611037565b81939154921b1b19169055555b51908152a280f35b634e487b7160e01b8a5260319052602489fd5b634e487b7160e01b8b526011835260248bfd5b50505050507ff9bc9d5b5733d904409def43a5ecc888dbdac9a95687780d8fd489d3bb3813fc9293509060209161066a565b5050516371e8313760e01b8152fd5b85602491865191636c51fda960e11b8352820152fd5b8451630fb532db60e11b81528690fd5b8280fd5b833461015957602036600319011261015957610153610b76565b9050346106ff57816003193601126106ff576107509161073b610b91565b90519161074783610bd8565b84835235610c8c565b80f35b8391503461013557826003193601126101355761076e610b76565b610776610b91565b6001600160401b03821684526003602052848420549092906001600160a01b031680156107c5578033036107af5784610750858561104f565b8551636c51fda960e11b81529182015260249150fd5b508451630fb532db60e11b8152fd5b5050346101355781600319360112610135576020905161ffff7f0000000000000000000000000000000000000000000000000000000000000000168152f35b50503461013557816003193601126101355761012091815191620186a0809181855281602086015284015280606084015260808301528060a08301528060c08301528060e0830152610100820152f35b8383346101355760a036600319011261013557602435926001600160401b038085169081860361033b576044359561ffff87168097036109d95760643563ffffffff918282168092036109d5576084359283168093036109d5576108c89033906111b1565b156109c5578387526003602052858720546001600160a01b0316156109b557602097600154976108f789611012565b6001556002549461090786611012565b60025588519161091683610ba7565b8783528b8301918583528a808501928884528d815260058f52209351166bffffffff0000000000000000845493518c1b169163ffffffff60601b905160601b16926fffffffffffffffffffffffffffffffff191617171790558651938885528985015286840152606083015260808201527f63373d1c4696214b898952999c9aaec57dac1ee2723cec59bea6888f489a977260a033943592a451908152f35b8551630fb532db60e11b81528590fd5b85516371e8313760e01b81528590fd5b8780fd5b8580fd5b505034610135578160031936011261013557602090516001600160601b037f0000000000000000000000000000000000000000000000000000000000000000168152f35b50503461013557816003193601126101355760209051660e35fa931a00008152f35b83833461013557606036600319011261013557610a5e610b91565b604435936001600160401b038511610adc5736602386011215610adc578481013594610a95610a8c87610c14565b94519485610bf3565b8584526020956024602086019160051b83010191368311610ad857602401905b828210610ac9578661075087878735610c8c565b81358152908701908701610ab5565b8680fd5b8380fd5b5050346101355736600319011261015957610af9610b76565b50610153610b91565b849084346106ff57826003193601126106ff579190610b2081610bd8565b818152602091835193849360608086019260038752621e8480602088015286015283518092526020608086019401925b828110610b5f57505050500390f35b835185528695509381019392810192600101610b50565b600435906001600160401b0382168203610b8c57565b600080fd5b602435906001600160a01b0382168203610b8c57565b606081019081106001600160401b03821117610bc257604052565b634e487b7160e01b600052604160045260246000fd5b602081019081106001600160401b03821117610bc257604052565b90601f801991011681019081106001600160401b03821117610bc257604052565b6001600160401b038111610bc25760051b60200190565b60405162461bcd60e51b815260206004820152600f60248201526e1b9bdd081a5b5c1b195b595b9d1959608a1b6044820152606490fd5b8051821015610c765760209160051b010190565b634e487b7160e01b600052603260045260246000fd5b925a90600090858252602092600584526001600160401b039060409382858220541615610fd8578881526005865284812091855192610cca84610ba7565b5493808516845263ffffffff90818986019681818b1c16885260601c169a8886019b808d5281518015600014610fa857505050818b511699610d0b8b610c14565b9a610d188a519c8d610bf3565b808c52610d27601f1991610c14565b01368b8d01378a9285818e5b5116811015610d755760018f918e610d6c8f8f9584918789985191820192835283818301528152610d6381610ba7565b51902092610c62565b5201908e610d33565b50919395979c9b50919395979899509088938b87925b8651928d80850193631fe543e360e01b855260249960648701918b88015260448701528251809152816084870193019187905b828210610f835750505050908495848693039c610de3601f199e8f8101885287610bf3565b5116935193f1953d15610f7d573d828111610f6a57610e0b8a8a5193601f8401160183610bf3565b815284893d92013e5b5a9283810390808211610f57576001600160601b0394857f0000000000000000000000000000000000000000000000000000000000000000168084029384041491141715610f4457837f000000000000000000000000000000000000000000000000000000000000000016908101809111610f445783169481815116855260038952858886205460a01c10610f335751168352600387528583209084825460a01c03928311610f21575080546001600160a01b031660a09290921b6001600160a01b03191691909117905585815260058552838120558251858152938401521515908201527f7dffc5ae5ee4e2e4df1651cf6ad329a73cebdb728f37ea0187b9b17e036756e490606090a2565b634e487b7160e01b8452601160045283fd5b8751631e9acf1760e31b8152600490fd5b634e487b7160e01b855260116004528285fd5b634e487b7160e01b865260116004528386fd5b634e487b7160e01b865260416004528386fd5b50610e14565b83959799969850600192948192945181520194019101918f928c979598969493610dbe565b90919597999a9b93929496989d9c5003610fc7579088938b8792610d8b565b8851631f9efadb60e11b8152600490fd5b845162461bcd60e51b81526004810187905260136024820152721b9bdb995e1a5cdd195b9d081c995c5d595cdd606a1b6044820152606490fd5b60001981146110215760010190565b634e487b7160e01b600052601160045260246000fd5b8054821015610c765760005260206000200190600090565b906001600160401b038216916000908382526004602052604082205461ffff7f00000000000000000000000000000000000000000000000000000000000000001614611128578261109f916111b1565b611123578281526004602052604081208054916801000000000000000083101561110f5750916110fc816105ff847f752ead9f4536ec1319ee3a5a604e1d65eded22e0924251552ba14ae4faa1bbc3966001602097018155611037565b6040516001600160a01b039091168152a2565b634e487b7160e01b81526041600452602490fd5b505050565b6040516305a48e0f60e01b8152600490fd5b90604051918281549182825260209260208301916000526020600020936000905b8282106111735750505061117192500383610bf3565b565b85546001600160a01b03168452600195860195889550938101939091019061115b565b9190916001600160601b038080941691160191821161102157565b6001600160401b031660005260046020526111cf604060002061113a565b9060005b8251811015611209576001600160a01b03806111ef8386610c62565b511690831614611201576001016111d3565b505050600190565b50505060009056fea264697066735822122072223ac502980226bccc95aff872bc9fc3a5994a71f4c32ab4dd6fbde3b98c2b64736f6c63430008190033","linkReferences":{}},"methodIdentifiers":{"BASE_FEE()":"3d18651e","GAS_PRICE_LINK()":"a410347f","MAX_CONSUMERS()":"64d51a2a","acceptSubscriptionOwnerTransfer(uint64)":"82359740","addConsumer(uint64,address)":"7341c10c","cancelSubscription(uint64,address)":"d7ae1d30","consumerIsAdded(uint64,address)":"ed5eb06d","createSubscription()":"a21a23e4","fulfillRandomWords(uint256,address)":"808974ff","fulfillRandomWordsWithOverride(uint256,address,uint256[])":"08e3898e","fundSubscription(uint64,uint96)":"afc69b53","getConfig()":"c3f909d4","getFallbackWeiPerUnitLink()":"356dac71","getFeeConfig()":"5fbbc0d2","getRequestConfig()":"00012291","getSubscription(uint64)":"a47c7696","pendingRequestExists(uint64)":"e82ad7d4","removeConsumer(uint64,address)":"9f87fad7","requestRandomWords(bytes32,uint64,uint16,uint32,uint32)":"5d3b1d30","requestSubscriptionOwnerTransfer(uint64,address)":"04c357cb"},"id":3}