{"abi":[{"type":"constructor","inputs":[{"name":"entranceFee","type":"uint256","internalType":"uint256"},{"name":"interval","type":"uint256","internalType":"uint256"},{"name":"vrfCoordinator","type":"address","internalType":"address"},{"name":"gasLane","type":"bytes32","internalType":"bytes32"},{"name":"subscriptionId","type":"uint64","internalType":"uint64"},{"name":"callbackGasLimit","type":"uint32","internalType":"uint32"}],"stateMutability":"nonpayable"},{"type":"function","name":"checkUpKeep","inputs":[{"name":"","type":"bytes","internalType":"bytes"}],"outputs":[{"name":"upkeepNeeded","type":"bool","internalType":"bool"},{"name":"","type":"bytes","internalType":"bytes"}],"stateMutability":"view"},{"type":"function","name":"enterRaffle","inputs":[],"outputs":[],"stateMutability":"payable"},{"type":"function","name":"getEntranceFee","inputs":[],"outputs":[{"name":"","type":"uint256","internalType":"uint256"}],"stateMutability":"view"},{"type":"function","name":"getPlayer","inputs":[{"name":"index","type":"uint256","internalType":"uint256"}],"outputs":[{"name":"","type":"address","internalType":"address"}],"stateMutability":"view"},{"type":"function","name":"getRaffleState","inputs":[],"outputs":[{"name":"","type":"uint8","internalType":"enum Raffle.RaffleState"}],"stateMutability":"view"},{"type":"function","name":"performUpkeep","inputs":[{"name":"","type":"bytes","internalType":"bytes"}],"outputs":[],"stateMutability":"nonpayable"},{"type":"function","name":"rawFulfillRandomWords","inputs":[{"name":"requestId","type":"uint256","internalType":"uint256"},{"name":"randomWords","type":"uint256[]","internalType":"uint256[]"}],"outputs":[],"stateMutability":"nonpayable"},{"type":"event","name":"EnteredRaffle","inputs":[{"name":"player","type":"address","indexed":true,"internalType":"address"}],"anonymous":false},{"type":"event","name":"WinnerPicked","inputs":[{"name":"player","type":"address","indexed":true,"internalType":"address"}],"anonymous":false},{"type":"error","name":"OnlyCoordinatorCanFulfill","inputs":[{"name":"have","type":"address","internalType":"address"},{"name":"want","type":"address","internalType":"address"}]},{"type":"error","name":"Raffle__FailedToSendBalance","inputs":[]},{"type":"error","name":"Raffle__LessThanEntranceFee","inputs":[]},{"type":"error","name":"Raffle__RaffleNotOpen","inputs":[]},{"type":"error","name":"Raffle__UpkeepNotNeeded","inputs":[{"name":"currentBalance","type":"uint256","internalType":"uint256"},{"name":"numPlayers","type":"uint256","internalType":"uint256"},{"name":"raffleState","type":"uint256","internalType":"uint256"}]}],"bytecode":{"object":"0x61016060405234801561001157600080fd5b50604051610c21380380610c2183398101604081905261003091610083565b6001600160a01b0393909316608081905260c09490945260a0949094526101005260e0919091526001600160401b039091166101205263ffffffff1661014052426000556002805460ff1916905561010e565b60008060008060008060c0878903121561009c57600080fd5b86516020880151604089015191975095506001600160a01b03811681146100c257600080fd5b6060880151608089015191955093506001600160401b03811681146100e657600080fd5b60a088015190925063ffffffff8116811461010057600080fd5b809150509295509295509295565b60805160a05160c05160e051610100516101205161014051610aab61017660003960006103f8015260006103c10152600061039b0152600061043401526000818161034401526104af015260006101f501526000818161017101526101b30152610aab6000f3fe6080604052600436106100705760003560e01c80632cfcc5391161004e5780632cfcc539146100d85780634585e33b146100e05780635e6c102e14610100578063e55ae4e81461012e57600080fd5b806309bc33a714610075578063115cbaf5146100965780631fe543e3146100b6575b600080fd5b34801561008157600080fd5b50604051600081526020015b60405180910390f35b3480156100a257600080fd5b5060025460ff1660405161008d9190610763565b3480156100c257600080fd5b506100d66100d13660046107d2565b610166565b005b6100d66101f3565b3480156100ec57600080fd5b506100d66100fb366004610884565b6102d8565b34801561010c57600080fd5b5061012061011b3660046108f6565b6104a7565b60405161008d92919061098b565b34801561013a57600080fd5b5061014e6101493660046109e4565b610555565b6040516001600160a01b03909116815260200161008d565b336001600160a01b037f000000000000000000000000000000000000000000000000000000000000000016146101e55760405163073e64fd60e21b81523360048201526001600160a01b037f00000000000000000000000000000000000000000000000000000000000000001660248201526044015b60405180910390fd5b6101ef8282610585565b5050565b7f000000000000000000000000000000000000000000000000000000000000000034101561023457604051633d79513560e01b815260040160405180910390fd5b600060025460ff16600181111561024d5761024d61074d565b1461026b5760405163349289c560e21b815260040160405180910390fd5b60018054808201825560009182527fb10e2d527612073b26eecdfd717e6a320cf44b4afac2b0732d9fcbe2b7fa0cf60180546001600160a01b0319163390811790915560405190917f819fbd717c9d0b421352c5116a644ca68ba176960c33f406f08d98a27370ca2791a2565b60006102f2604051806020016040528060008152506104a7565b509050806103425760018054600254479260ff909116908111156103185761031861074d565b604051632c2193d560e11b81526004810193909352602483019190915260448201526064016101dc565b7f00000000000000000000000000000000000000000000000000000000000000006000544261037191906109fd565b101561037c57600080fd5b6002805460ff191660019081179091556040516305d3b1d360e41b81527f000000000000000000000000000000000000000000000000000000000000000060048201527f000000000000000000000000000000000000000000000000000000000000000067ffffffffffffffff166024820152600360448201527f000000000000000000000000000000000000000000000000000000000000000063ffffffff16606482015260848101919091526001600160a01b037f00000000000000000000000000000000000000000000000000000000000000001690635d3b1d309060a4016020604051808303816000875af115801561047d573d6000803e3d6000fd5b505050506040513d601f19601f820116820180604052508101906104a19190610a24565b50505050565b6000606060007f0000000000000000000000000000000000000000000000000000000000000000600054426104dc91906109fd565b600254911115915060009060ff1660018111156104fb576104fb61074d565b600154901591504715159015158380156105125750825b801561051b5750825b80156105245750815b801561052d5750805b60408051808201909152600381526203078360ec1b6020820152909890975095505050505050565b60006001828154811061056a5761056a610a3d565b6000918252602090912001546001600160a01b031692915050565b6000600180549050826000815181106105a0576105a0610a3d565b60200260200101516105b29190610a53565b90506000600182815481106105c9576105c9610a3d565b600091825260208083209190910154600280546001600160a81b03191660ff196101006001600160a01b0390941693840216179055604080518481529283019052925090508051610622916001916020909101906106d3565b504260009081556040516001600160a01b0383169047908381818185875af1925050503d8060008114610671576040519150601f19603f3d011682016040523d82523d6000602084013e610676565b606091505b505090508061069857604051632723a64160e11b815260040160405180910390fd5b6040516001600160a01b038316907f5b690ec4a06fe979403046eaeea5b3ce38524683c3001f662c8b5a829632f7df90600090a25050505050565b828054828255906000526020600020908101928215610728579160200282015b8281111561072857825182546001600160a01b0319166001600160a01b039091161782556020909201916001909101906106f3565b50610734929150610738565b5090565b5b808211156107345760008155600101610739565b634e487b7160e01b600052602160045260246000fd5b602081016002831061078557634e487b7160e01b600052602160045260246000fd5b91905290565b634e487b7160e01b600052604160045260246000fd5b604051601f8201601f1916810167ffffffffffffffff811182821017156107ca576107ca61078b565b604052919050565b600080604083850312156107e557600080fd5b8235915060208084013567ffffffffffffffff8082111561080557600080fd5b818601915086601f83011261081957600080fd5b81358181111561082b5761082b61078b565b8060051b915061083c8483016107a1565b818152918301840191848101908984111561085657600080fd5b938501935b838510156108745784358252938501939085019061085b565b8096505050505050509250929050565b6000806020838503121561089757600080fd5b823567ffffffffffffffff808211156108af57600080fd5b818501915085601f8301126108c357600080fd5b8135818111156108d257600080fd5b8660208285010111156108e457600080fd5b60209290920196919550909350505050565b6000602080838503121561090957600080fd5b823567ffffffffffffffff8082111561092157600080fd5b818501915085601f83011261093557600080fd5b8135818111156109475761094761078b565b610959601f8201601f191685016107a1565b9150808252868482850101111561096f57600080fd5b8084840185840137600090820190930192909252509392505050565b82151581526000602060406020840152835180604085015260005b818110156109c2578581018301518582016060015282016109a6565b506000606082860101526060601f19601f830116850101925050509392505050565b6000602082840312156109f657600080fd5b5035919050565b81810381811115610a1e57634e487b7160e01b600052601160045260246000fd5b92915050565b600060208284031215610a3657600080fd5b5051919050565b634e487b7160e01b600052603260045260246000fd5b600082610a7057634e487b7160e01b600052601260045260246000fd5b50069056fea26469706673582212208c4587c35e2c784c0c82cf38269a7732806b1cd1e9146137339da07fd5b6a01e64736f6c63430008190033","linkReferences":{}},"methodIdentifiers":{"checkUpKeep(bytes)":"5e6c102e","enterRaffle()":"2cfcc539","getEntranceFee()":"09bc33a7","getPlayer(uint256)":"e55ae4e8","getRaffleState()":"115cbaf5","performUpkeep(bytes)":"4585e33b","rawFulfillRandomWords(uint256,uint256[])":"1fe543e3"},"id":30}