{"abi":[{"type":"constructor","inputs":[{"name":"entranceFee","type":"uint256","internalType":"uint256"},{"name":"interval","type":"uint256","internalType":"uint256"},{"name":"vrfCoordinator","type":"address","internalType":"address"},{"name":"gasLane","type":"bytes32","internalType":"bytes32"},{"name":"subscriptionId","type":"uint64","internalType":"uint64"},{"name":"callbackGasLimit","type":"uint32","internalType":"uint32"}],"stateMutability":"nonpayable"},{"type":"function","name":"checkUpKeep","inputs":[{"name":"","type":"bytes","internalType":"bytes"}],"outputs":[{"name":"upkeepNeeded","type":"bool","internalType":"bool"},{"name":"","type":"bytes","internalType":"bytes"}],"stateMutability":"view"},{"type":"function","name":"enterRaffle","inputs":[],"outputs":[],"stateMutability":"payable"},{"type":"function","name":"getEntranceFee","inputs":[],"outputs":[{"name":"","type":"uint256","internalType":"uint256"}],"stateMutability":"view"},{"type":"function","name":"performUpkeep","inputs":[{"name":"","type":"bytes","internalType":"bytes"}],"outputs":[],"stateMutability":"nonpayable"},{"type":"function","name":"rawFulfillRandomWords","inputs":[{"name":"requestId","type":"uint256","internalType":"uint256"},{"name":"randomWords","type":"uint256[]","internalType":"uint256[]"}],"outputs":[],"stateMutability":"nonpayable"},{"type":"event","name":"EnteredRaffle","inputs":[{"name":"player","type":"address","indexed":true,"internalType":"address"}],"anonymous":false},{"type":"event","name":"WinnerPicked","inputs":[{"name":"player","type":"address","indexed":true,"internalType":"address"}],"anonymous":false},{"type":"error","name":"OnlyCoordinatorCanFulfill","inputs":[{"name":"have","type":"address","internalType":"address"},{"name":"want","type":"address","internalType":"address"}]},{"type":"error","name":"Raffle__FailedToSendBalance","inputs":[]},{"type":"error","name":"Raffle__LessThanEntranceFee","inputs":[]},{"type":"error","name":"Raffle__RaffleNotOpen","inputs":[]},{"type":"error","name":"Raffle__UpkeepNotNeeded","inputs":[{"name":"currentBalance","type":"uint256","internalType":"uint256"},{"name":"numPlayers","type":"uint256","internalType":"uint256"},{"name":"raffleState","type":"uint256","internalType":"uint256"}]}],"bytecode":{"object":"0x61016060405234801561001157600080fd5b50604051610b31380380610b3183398101604081905261003091610083565b6001600160a01b0393909316608081905260c09490945260a0949094526101005260e0919091526001600160401b039091166101205263ffffffff1661014052426000556002805460ff1916905561010e565b60008060008060008060c0878903121561009c57600080fd5b86516020880151604089015191975095506001600160a01b03811681146100c257600080fd5b6060880151608089015191955093506001600160401b03811681146100e657600080fd5b60a088015190925063ffffffff8116811461010057600080fd5b809150509295509295509295565b60805160a05160c05160e0516101005161012051610140516109bc610175600039600061037a015260006103430152600061031d015260006103b60152600081816102c601526104310152600061017701526000818160f3015261013501526109bc6000f3fe60806040526004361061004a5760003560e01c806309bc33a71461004f5780631fe543e3146100705780632cfcc539146100925780634585e33b1461009a5780635e6c102e146100ba575b600080fd5b34801561005b57600080fd5b50604051600081526020015b60405180910390f35b34801561007c57600080fd5b5061009061008b3660046106e6565b6100e8565b005b610090610175565b3480156100a657600080fd5b506100906100b5366004610798565b61025a565b3480156100c657600080fd5b506100da6100d536600461080a565b610429565b60405161006792919061089f565b336001600160a01b037f000000000000000000000000000000000000000000000000000000000000000016146101675760405163073e64fd60e21b81523360048201526001600160a01b037f00000000000000000000000000000000000000000000000000000000000000001660248201526044015b60405180910390fd5b61017182826104d7565b5050565b7f00000000000000000000000000000000000000000000000000000000000000003410156101b657604051633d79513560e01b815260040160405180910390fd5b600060025460ff1660018111156101cf576101cf6108f8565b146101ed5760405163349289c560e21b815260040160405180910390fd5b60018054808201825560009182527fb10e2d527612073b26eecdfd717e6a320cf44b4afac2b0732d9fcbe2b7fa0cf60180546001600160a01b0319163390811790915560405190917f819fbd717c9d0b421352c5116a644ca68ba176960c33f406f08d98a27370ca2791a2565b600061027460405180602001604052806000815250610429565b509050806102c45760018054600254479260ff9091169081111561029a5761029a6108f8565b604051632c2193d560e11b815260048101939093526024830191909152604482015260640161015e565b7f0000000000000000000000000000000000000000000000000000000000000000600054426102f3919061090e565b10156102fe57600080fd5b6002805460ff191660019081179091556040516305d3b1d360e41b81527f000000000000000000000000000000000000000000000000000000000000000060048201527f000000000000000000000000000000000000000000000000000000000000000067ffffffffffffffff166024820152600360448201527f000000000000000000000000000000000000000000000000000000000000000063ffffffff16606482015260848101919091526001600160a01b037f00000000000000000000000000000000000000000000000000000000000000001690635d3b1d309060a4016020604051808303816000875af11580156103ff573d6000803e3d6000fd5b505050506040513d601f19601f820116820180604052508101906104239190610935565b50505050565b6000606060007f00000000000000000000000000000000000000000000000000000000000000006000544261045e919061090e565b600254911115915060009060ff16600181111561047d5761047d6108f8565b600154901591504715159015158380156104945750825b801561049d5750825b80156104a65750815b80156104af5750805b60408051808201909152600381526203078360ec1b6020820152909890975095505050505050565b6000600180549050826000815181106104f2576104f261094e565b60200260200101516105049190610964565b905060006001828154811061051b5761051b61094e565b600091825260208083209190910154600280546001600160a81b03191660ff196101006001600160a01b039094169384021617905560408051848152928301905292509050805161057491600191602090910190610625565b504260009081556040516001600160a01b0383169047908381818185875af1925050503d80600081146105c3576040519150601f19603f3d011682016040523d82523d6000602084013e6105c8565b606091505b50509050806105ea57604051632723a64160e11b815260040160405180910390fd5b6040516001600160a01b038316907f5b690ec4a06fe979403046eaeea5b3ce38524683c3001f662c8b5a829632f7df90600090a25050505050565b82805482825590600052602060002090810192821561067a579160200282015b8281111561067a57825182546001600160a01b0319166001600160a01b03909116178255602090920191600190910190610645565b5061068692915061068a565b5090565b5b80821115610686576000815560010161068b565b634e487b7160e01b600052604160045260246000fd5b604051601f8201601f1916810167ffffffffffffffff811182821017156106de576106de61069f565b604052919050565b600080604083850312156106f957600080fd5b8235915060208084013567ffffffffffffffff8082111561071957600080fd5b818601915086601f83011261072d57600080fd5b81358181111561073f5761073f61069f565b8060051b91506107508483016106b5565b818152918301840191848101908984111561076a57600080fd5b938501935b838510156107885784358252938501939085019061076f565b8096505050505050509250929050565b600080602083850312156107ab57600080fd5b823567ffffffffffffffff808211156107c357600080fd5b818501915085601f8301126107d757600080fd5b8135818111156107e657600080fd5b8660208285010111156107f857600080fd5b60209290920196919550909350505050565b6000602080838503121561081d57600080fd5b823567ffffffffffffffff8082111561083557600080fd5b818501915085601f83011261084957600080fd5b81358181111561085b5761085b61069f565b61086d601f8201601f191685016106b5565b9150808252868482850101111561088357600080fd5b8084840185840137600090820190930192909252509392505050565b82151581526000602060406020840152835180604085015260005b818110156108d6578581018301518582016060015282016108ba565b506000606082860101526060601f19601f830116850101925050509392505050565b634e487b7160e01b600052602160045260246000fd5b8181038181111561092f57634e487b7160e01b600052601160045260246000fd5b92915050565b60006020828403121561094757600080fd5b5051919050565b634e487b7160e01b600052603260045260246000fd5b60008261098157634e487b7160e01b600052601260045260246000fd5b50069056fea26469706673582212201b5302c60d033e182c15409c527bca1dae37ff3c488e7f3d3b9c4be04b87377f64736f6c63430008190033","linkReferences":{}},"methodIdentifiers":{"checkUpKeep(bytes)":"5e6c102e","enterRaffle()":"2cfcc539","getEntranceFee()":"09bc33a7","performUpkeep(bytes)":"4585e33b","rawFulfillRandomWords(uint256,uint256[])":"1fe543e3"},"id":22}