{"abi":[{"type":"constructor","inputs":[{"name":"entranceFee","type":"uint256","internalType":"uint256"},{"name":"interval","type":"uint256","internalType":"uint256"},{"name":"vrfCoordinator","type":"address","internalType":"address"},{"name":"gasLane","type":"bytes32","internalType":"bytes32"},{"name":"subscriptionId","type":"uint64","internalType":"uint64"},{"name":"callbackGasLimit","type":"uint32","internalType":"uint32"}],"stateMutability":"nonpayable"},{"type":"function","name":"checkUpKeep","inputs":[{"name":"","type":"bytes","internalType":"bytes"}],"outputs":[{"name":"upkeepNeeded","type":"bool","internalType":"bool"},{"name":"","type":"bytes","internalType":"bytes"}],"stateMutability":"view"},{"type":"function","name":"enterRaffle","inputs":[],"outputs":[],"stateMutability":"payable"},{"type":"function","name":"getEntranceFee","inputs":[],"outputs":[{"name":"","type":"uint256","internalType":"uint256"}],"stateMutability":"view"},{"type":"function","name":"getLastTimeStamp","inputs":[],"outputs":[{"name":"","type":"uint256","internalType":"uint256"}],"stateMutability":"view"},{"type":"function","name":"getLengthOfPlayers","inputs":[],"outputs":[{"name":"","type":"uint256","internalType":"uint256"}],"stateMutability":"view"},{"type":"function","name":"getPlayer","inputs":[{"name":"index","type":"uint256","internalType":"uint256"}],"outputs":[{"name":"","type":"address","internalType":"address"}],"stateMutability":"view"},{"type":"function","name":"getRaffleState","inputs":[],"outputs":[{"name":"","type":"uint8","internalType":"enum Raffle.RaffleState"}],"stateMutability":"view"},{"type":"function","name":"getRecentWinner","inputs":[],"outputs":[{"name":"","type":"address","internalType":"address"}],"stateMutability":"view"},{"type":"function","name":"performUpkeep","inputs":[{"name":"","type":"bytes","internalType":"bytes"}],"outputs":[],"stateMutability":"nonpayable"},{"type":"function","name":"rawFulfillRandomWords","inputs":[{"name":"requestId","type":"uint256","internalType":"uint256"},{"name":"randomWords","type":"uint256[]","internalType":"uint256[]"}],"outputs":[],"stateMutability":"nonpayable"},{"type":"event","name":"EnteredRaffle","inputs":[{"name":"player","type":"address","indexed":true,"internalType":"address"}],"anonymous":false},{"type":"event","name":"RequestedRaffleWinner","inputs":[{"name":"requestId","type":"uint256","indexed":true,"internalType":"uint256"}],"anonymous":false},{"type":"event","name":"WinnerPicked","inputs":[{"name":"player","type":"address","indexed":true,"internalType":"address"}],"anonymous":false},{"type":"error","name":"OnlyCoordinatorCanFulfill","inputs":[{"name":"have","type":"address","internalType":"address"},{"name":"want","type":"address","internalType":"address"}]},{"type":"error","name":"Raffle__FailedToSendBalance","inputs":[]},{"type":"error","name":"Raffle__LessThanEntranceFee","inputs":[]},{"type":"error","name":"Raffle__RaffleNotOpen","inputs":[]},{"type":"error","name":"Raffle__UpkeepNotNeeded","inputs":[{"name":"currentBalance","type":"uint256","internalType":"uint256"},{"name":"numPlayers","type":"uint256","internalType":"uint256"},{"name":"raffleState","type":"uint256","internalType":"uint256"}]}],"bytecode":{"object":"0x61016034610101576001600160401b03601f610b0038819003918201601f1916840191838311858410176101065780859260c09460405283398101031261010157815160208301516040840151916001600160a01b0383169182840361010157606086015195608081015195861686036101015760a001519363ffffffff851685036101015760805260c05260a05261010093845260e0526101209182526101409081524260005560ff1960025416600255604051916109e3938461011d853960805184610695015260a0518461052c015260c05184818161016001526102ef015260e0518461042101525183610391015251826103b9015251816103ea0152f35b600080fd5b634e487b7160e01b600052604160045260246000fdfe608060408181526004918236101561001657600080fd5b600090813560e01c90816309bc33a714610898575080630ea3df3814610879578063115cbaf51461083a5780631fe543e3146106125780632cfcc5391461051d5780634585e33b1461028d578063473f1ddc146102605780635e6c102e146100ea578063c1c244e8146100c95763e55ae4e81461009257600080fd5b346100c65760203660031901126100c657506100b06020923561093d565b905491519160018060a01b039160031b1c168152f35b80fd5b5090346100e657816003193601126100e657602091549051908152f35b5080fd5b50346100c6576020806003193601126100e657833567ffffffffffffffff811161025c573660238201121561025c57808501359061012782610921565b90610134865192836108ff565b8282523660248483010111610258579183918160248795018483013701015261015e82544261098a565b7f000000000000000000000000000000000000000000000000000000000000000011159360ff600254169060028210156102455750154715156001541515918661023d575b86610235575b508561022d575b5084610225575b509290918051926101c7846108e3565b600384526203078360ec1b85850152815194859315158452828185015284518093850152815b83811061020e57505060608094508284010152601f80199101168101030190f35b8086018201518782016060015286945081016101ed565b9350386101b7565b9450386101b0565b9550386101a9565b9550856101a3565b634e487b7160e01b845260219052602483fd5b8480fd5b8280fd5b5090346100e657816003193601126100e657600254905160089190911c6001600160a01b03168152602090f35b50913461025c576020806003193601126105195767ffffffffffffffff82358181116104ba57366023820112156104ba57808401358281116105155736910160240111610258578484516102e0816108b1565b5284546102ed814261098a565b7f000000000000000000000000000000000000000000000000000000000000000080911015916002549260ff841690600282101561050257600154904715158315826104fa575b826104f2575b50816104ea575b50806104e1575b6203078360ec1b888b5161035b816108e3565b600381520152156104be575050610372904261098a565b106104ba5760ff1916600190811760025584516305d3b1d360e41b81527f0000000000000000000000000000000000000000000000000000000000000000948101949094527f0000000000000000000000000000000000000000000000000000000000000000919091166024840152600360448401527f000000000000000000000000000000000000000000000000000000000000000063ffffffff1660648401526084830152808260a481877f00000000000000000000000000000000000000000000000000000000000000006001600160a01b03165af19283156104b157508392610483575b50507fcd6e45c8998311cab7e9d4385596cac867e20a0587194b954fa3a731c93ce78b8280a280f35b90809250813d83116104aa575b61049a81836108ff565b810103126100e65751388061045a565b503d610490565b513d85823e3d90fd5b8580fd5b60649188918a47905193632c2193d560e11b855284015260248301526044820152fd5b50801515610348565b905038610341565b91503861033a565b915081610334565b634e487b7160e01b8a526021885260248afd5b8680fd5b8380fd5b5090816003193601126100e6577f000000000000000000000000000000000000000000000000000000000000000034106106035760ff6002541660028110156105f0576105e15750600154680100000000000000008110156105ce57806001610589920160015561093d565b81546001600160a01b0360039290921b91821b1916339182901b179091557f819fbd717c9d0b421352c5116a644ca68ba176960c33f406f08d98a27370ca278280a280f35b506041602492634e487b7160e01b835252fd5b5163349289c560e21b81529050fd5b634e487b7160e01b835260218452602483fd5b51633d79513560e01b81529050fd5b50913461025c578160031936011261025c5767ffffffffffffffff91602480358481116104ba57366023820112156104ba5780840135948511610828578460051b9060209084519661066760208501896108ff565b87526020870184819483010191368311610824578501905b82821061081557506001600160a01b03979250507f000000000000000000000000000000000000000000000000000000000000000087169050338190036107f8575051156107e65751906001916001549182156107d55750816106e2910661093d565b90549060031b1c9485169460025490610100600160a81b039060081b16906affffffffffffffffffffff60a81b1617600255858351610720816108b1565b52856001557fb10e2d527612073b26eecdfd717e6a320cf44b4afac2b0732d9fcbe2b7fa0cf6908101905b8181106107cb57505050600184524284558380808047875af13d156107c6573d61077481610921565b90610781845192836108ff565b81528560203d92013e5b156107b95750507f5b690ec4a06fe979403046eaeea5b3ce38524683c3001f662c8b5a829632f7df8280a280f35b51632723a64160e11b8152fd5b61078b565b868155820161074b565b634e487b7160e01b88526012865287fd5b50634e487b7160e01b85526032835284fd5b845163073e64fd60e21b8152338188015280850191909152604490fd5b8135815290830190830161067f565b8980fd5b50634e487b7160e01b85526041835284fd5b5090346100e657816003193601126100e65760ff60025416905191600282101561086657602083838152f35b634e487b7160e01b815260218452602490fd5b5090346100e657816003193601126100e6576020906001549051908152f35b9050346100e657816003193601126100e6576020918152f35b6020810190811067ffffffffffffffff8211176108cd57604052565b634e487b7160e01b600052604160045260246000fd5b6040810190811067ffffffffffffffff8211176108cd57604052565b90601f8019910116810190811067ffffffffffffffff8211176108cd57604052565b67ffffffffffffffff81116108cd57601f01601f191660200190565b6001548110156109745760016000527fb10e2d527612073b26eecdfd717e6a320cf44b4afac2b0732d9fcbe2b7fa0cf60190600090565b634e487b7160e01b600052603260045260246000fd5b9190820391821161099757565b634e487b7160e01b600052601160045260246000fdfea2646970667358221220f7adb315d480db42742c153ce049b1cadcf2ad8f9b5a356e8875900e1124ae2664736f6c63430008190033","linkReferences":{}},"methodIdentifiers":{"checkUpKeep(bytes)":"5e6c102e","enterRaffle()":"2cfcc539","getEntranceFee()":"09bc33a7","getLastTimeStamp()":"c1c244e8","getLengthOfPlayers()":"0ea3df38","getPlayer(uint256)":"e55ae4e8","getRaffleState()":"115cbaf5","getRecentWinner()":"473f1ddc","performUpkeep(bytes)":"4585e33b","rawFulfillRandomWords(uint256,uint256[])":"1fe543e3"},"id":34}