{"abi":[{"type":"function","name":"RELATIVE_BROADCAST_PATH","inputs":[],"outputs":[{"name":"","type":"string","internalType":"string"}],"stateMutability":"view"},{"type":"function","name":"get_most_recent_deployment","inputs":[{"name":"contractName","type":"string","internalType":"string"},{"name":"chainId","type":"uint256","internalType":"uint256"},{"name":"relativeBroadcastPath","type":"string","internalType":"string"}],"outputs":[{"name":"","type":"address","internalType":"address"}],"stateMutability":"view"},{"type":"function","name":"get_most_recent_deployment","inputs":[{"name":"contractName","type":"string","internalType":"string"},{"name":"chainId","type":"uint256","internalType":"uint256"}],"outputs":[{"name":"","type":"address","internalType":"address"}],"stateMutability":"view"},{"type":"function","name":"vm","inputs":[],"outputs":[{"name":"","type":"Vm","internalType":"contract Vm"}],"stateMutability":"view"}],"bytecode":{"object":"0x611614610039600b82828239805160001a607314602c57634e487b7160e01b600052600060045260246000fd5b30600052607381538281f3fe73000000000000000000000000000000000000000030146080604052600436106100565760003560e01c80632aa1c6961461005b5780633a7684631461009b5780633d363fe3146100ce578063e374cdf1146100e1575b600080fd5b6100856040518060400160405280600b81526020016a0b8bd89c9bd85918d85cdd60aa1b81525081565b60405161009291906109c5565b60405180910390f35b6100b6737109709ecfa91a80626ff3989d68f67f5b1dd12d81565b6040516001600160a01b039091168152602001610092565b6100b66100dc366004610b4d565b6100f4565b6100b66100ef366004610bb9565b6104a7565b604051630525e1db60e21b81526000908190819081908190737109709ecfa91a80626ff3989d68f67f5b1dd12d90631497876c90610139908990600390600401610bfd565b600060405180830381865afa158015610156573d6000803e3d6000fd5b505050506040513d6000823e601f3d908101601f1916820160405261017e9190810190610cad565b905060005b81518110156103d95760008282815181106101a0576101a0610df7565b602090810291909101015160405163348051d760e11b8152600481018b905290915061023590737109709ecfa91a80626ff3989d68f67f5b1dd12d90636900a3ae90602401600060405180830381865afa158015610202573d6000803e3d6000fd5b505050506040513d6000823e601f3d908101601f1916820160405261022a9190810190610e0d565b6020830151906104e0565b801561027a575061027a6040518060400160405280600f81526020016e393ab716b630ba32b9ba173539b7b760891b81525082602001516104e090919063ffffffff16565b156103d05760208101516040516360f9bb1160e01b815260019550600091737109709ecfa91a80626ff3989d68f67f5b1dd12d916360f9bb11916102c0916004016109c5565b600060405180830381865afa1580156102dd573d6000803e3d6000fd5b505050506040513d6000823e601f3d908101601f191682016040526103059190810190610e0d565b6040516356eef15b60e11b8152909150600090737109709ecfa91a80626ff3989d68f67f5b1dd12d9063addde2b690610342908590600401610e41565b602060405180830381865afa15801561035f573d6000803e3d6000fd5b505050506040513d601f19601f820116820180604052508101906103839190610e80565b9050868111156103cd576103bf6040518060400160405280600c81526020016b0283937b1b2b9b9b4b7339d160a51b81525084602001516105bf565b6103ca828d8a610608565b97505b50505b50600101610183565b50816104465760405162461bcd60e51b815260206004820152603160248201527f4e6f2072756e2d6c61746573742e6a736f6e2066696c6520666f756e6420666f604482015270391039b832b1b4b334b2b21031b430b4b760791b60648201526084015b60405180910390fd5b6001600160a01b0384161561046157839450505050506104a0565b60405162461bcd60e51b8152602060048201526014602482015273139bc818dbdb9d1c9858dd0819195c1b1bde595960621b604482015260640161043d565b9392505050565b60006104d783836040518060400160405280600b81526020016a0b8bd89c9bd85918d85cdd60aa1b8152506100f4565b90505b92915050565b805182516000918491849111806104f657508151155b15610506576000925050506104da565b60005b815183516105179190610eaf565b81116105b357600160005b835181101561058c5783818151811061053d5761053d610df7565b01602001516001600160f81b031916856105578386610ec2565b8151811061056757610567610df7565b01602001516001600160f81b03191614610584576000915061058c565b600101610522565b5080156105a05760019450505050506104da565b50806105ab81610ed5565b915050610509565b50600095945050505050565b61060482826040516024016105d5929190610eee565b60408051601f198184030181529190526020810180516001600160e01b0316634b5c427760e01b179052610835565b5050565b6000806106446040518060400160405280600e81526020016d242e7472616e73616374696f6e7360901b8152508661085690919063ffffffff16565b6040516314a29a0f60e21b8152909150737109709ecfa91a80626ff3989d68f67f5b1dd12d9063528a683c9061067e908890600401610f1c565b602060405180830381865afa15801561069b573d6000803e3d6000fd5b505050506040513d601f19601f820116820180604052508101906106bf9190610f66565b1561077a576000818060200190518101906106da91906111f5565b905061071c6040518060400160405280601a81526020017f496e7370656374696e67202573207472616e73616374696f6e7300000000000081525082516108d7565b60005b815181101561077357600082828151811061073c5761073c610df7565b6020026020010151905061075d87826060015161091c90919063ffffffff16565b1561076a57806040015195505b5060010161071f565b505061082c565b60008180602001905181019061079091906113de565b90506107d26040518060400160405280601a81526020017f496e7370656374696e67202573207472616e73616374696f6e7300000000000081525082516108d7565b60005b81518110156108295760008282815181106107f2576107f2610df7565b6020026020010151905061081387826060015161091c90919063ffffffff16565b1561082057806040015195505b506001016107d5565b50505b50909392505050565b80516a636f6e736f6c652e6c6f67602083016000808483855afa5050505050565b6040516385940ef160e01b8152606090737109709ecfa91a80626ff3989d68f67f5b1dd12d906385940ef1906108929086908690600401610eee565b600060405180830381865afa1580156108af573d6000803e3d6000fd5b505050506040513d6000823e601f3d908101601f191682016040526104d79190810190610e0d565b61060482826040516024016108ed9291906115a0565b60408051601f198184030181529190526020810180516001600160e01b03166309710a9d60e41b179052610835565b60008160405160200161092f91906115c2565b604051602081830303815290604052805190602001208360405160200161095691906115c2565b6040516020818303038152906040528051906020012014905092915050565b60005b83811015610990578181015183820152602001610978565b50506000910152565b600081518084526109b1816020860160208601610975565b601f01601f19169290920160200192915050565b6020815260006104d76020830184610999565b634e487b7160e01b600052604160045260246000fd5b60405160a081016001600160401b0381118282101715610a1057610a106109d8565b60405290565b604080519081016001600160401b0381118282101715610a1057610a106109d8565b60405160e081016001600160401b0381118282101715610a1057610a106109d8565b60405161014081016001600160401b0381118282101715610a1057610a106109d8565b60405161012081016001600160401b0381118282101715610a1057610a106109d8565b604051601f8201601f191681016001600160401b0381118282101715610ac857610ac86109d8565b604052919050565b60006001600160401b03821115610ae957610ae96109d8565b50601f01601f191660200190565b600082601f830112610b0857600080fd5b8135610b1b610b1682610ad0565b610aa0565b818152846020838601011115610b3057600080fd5b816020850160208301376000918101602001919091529392505050565b600080600060608486031215610b6257600080fd5b83356001600160401b0380821115610b7957600080fd5b610b8587838801610af7565b9450602086013593506040860135915080821115610ba257600080fd5b50610baf86828701610af7565b9150509250925092565b60008060408385031215610bcc57600080fd5b82356001600160401b03811115610be257600080fd5b610bee85828601610af7565b95602094909401359450505050565b604081526000610c106040830185610999565b90506001600160401b03831660208301529392505050565b60006001600160401b03821115610c4157610c416109d8565b5060051b60200190565b600082601f830112610c5c57600080fd5b8151610c6a610b1682610ad0565b818152846020838601011115610c7f57600080fd5b610c90826020830160208701610975565b949350505050565b80518015158114610ca857600080fd5b919050565b60006020808385031215610cc057600080fd5b82516001600160401b0380821115610cd757600080fd5b818501915085601f830112610ceb57600080fd5b8151610cf9610b1682610c28565b81815260059190911b83018401908481019088831115610d1857600080fd5b8585015b83811015610dea57805185811115610d345760008081fd5b860160a0818c03601f1901811315610d4c5760008081fd5b610d546109ee565b8983015188811115610d665760008081fd5b610d748e8c83870101610c4b565b82525060408084015189811115610d8b5760008081fd5b610d998f8d83880101610c4b565b8c840152506060808501518a81168114610db35760008081fd5b80838501525060809150610dc8828601610c98565b90830152610dd7848401610c98565b9082015285525050918601918601610d1c565b5098975050505050505050565b634e487b7160e01b600052603260045260246000fd5b600060208284031215610e1f57600080fd5b81516001600160401b03811115610e3557600080fd5b610c9084828501610c4b565b604081526000610e546040830184610999565b8281036020840152600a81526902e74696d657374616d760b41b60208201526040810191505092915050565b600060208284031215610e9257600080fd5b5051919050565b634e487b7160e01b600052601160045260246000fd5b818103818111156104da576104da610e99565b808201808211156104da576104da610e99565b600060018201610ee757610ee7610e99565b5060010190565b604081526000610f016040830185610999565b8281036020840152610f138185610999565b95945050505050565b604081526000610f2f6040830184610999565b82810360208401526015815274242e7472616e73616374696f6e735b305d2e72706360581b60208201526040810191505092915050565b600060208284031215610f7857600080fd5b6104d782610c98565b600082601f830112610f9257600080fd5b81516020610fa2610b1683610c28565b82815260059290921b84018101918181019086841115610fc157600080fd5b8286015b848110156110005780516001600160401b03811115610fe45760008081fd5b610ff28986838b0101610c4b565b845250918301918301610fc5565b509695505050505050565b80516001600160a01b0381168114610ca857600080fd5b600082601f83011261103357600080fd5b81516020611043610b1683610c28565b828152600592831b850182019282820191908785111561106257600080fd5b8387015b858110156111415780516001600160401b03808211156110865760008081fd5b908901906040828c03601f19018113156110a05760008081fd5b6110a8610a16565b6110b389850161100b565b815281840151838111156110c75760008081fd5b8085019450508c603f8501126110df57600092508283fd5b8884015192506110f1610b1684610c28565b83815292861b8401820192898101908e85111561110e5760008081fd5b948301945b8486101561112c5785518252948a0194908a0190611113565b828b0152508752505050928401928401611066565b5090979650505050505050565b600060e0828403121561116057600080fd5b611168610a38565b905081516001600160401b038082111561118157600080fd5b61118d85838601611022565b835260208401519150808211156111a357600080fd5b506111b084828501610c4b565b6020830152506111c26040830161100b565b6040820152606082015160608201526080820151608082015260a082015160a082015260c082015160c082015292915050565b6000602080838503121561120857600080fd5b82516001600160401b038082111561121f57600080fd5b818501915085601f83011261123357600080fd5b8151611241610b1682610c28565b81815260059190911b8301840190848101908883111561126057600080fd5b8585015b83811015610dea5780518581111561127b57600080fd5b8601610140818c03601f1901121561129257600080fd5b61129a610a5a565b88820151878111156112ab57600080fd5b6112b98d8b83860101610f81565b8252506040820151878111156112ce57600080fd5b6112dc8d8b83860101610c4b565b8a830152506112ed6060830161100b565b604082015260808201518781111561130457600080fd5b6113128d8b83860101610c4b565b60608301525060a08201518781111561132a57600080fd5b6113388d8b83860101610c4b565b60808301525060c082015160a082015261135460e08301610c98565b60c0820152610100808301518881111561136d57600080fd5b61137b8e8c83870101610c4b565b60e084015250610120808401518981111561139557600080fd5b6113a38f8d8388010161114e565b83850152506101408401519150888211156113bd57600080fd5b6113cb8e8c84870101610c4b565b9083015250845250918601918601611264565b600060208083850312156113f157600080fd5b82516001600160401b038082111561140857600080fd5b818501915085601f83011261141c57600080fd5b815161142a610b1682610c28565b81815260059190911b8301840190848101908883111561144957600080fd5b8585015b83811015610dea5780518581111561146457600080fd5b8601610120818c03601f190181131561147c57600080fd5b611484610a7d565b898301518881111561149557600080fd5b6114a38e8c83870101610f81565b8252506040830151888111156114b857600080fd5b6114c68e8c83870101610c4b565b8b830152506114d76060840161100b565b60408201526080830151888111156114ee57600080fd5b6114fc8e8c83870101610c4b565b60608301525060a08301518881111561151457600080fd5b6115228e8c83870101610c4b565b60808301525060c083015160a082015261153e60e08401610c98565b60c082015261010080840151898111156115585760008081fd5b6115668f8d8388010161114e565b60e08401525091830151918883111561157f5760008081fd5b61158d8e8c85870101610c4b565b908201528552505091860191860161144d565b6040815260006115b36040830185610999565b90508260208301529392505050565b600082516115d4818460208701610975565b919091019291505056fea2646970667358221220cd9dda2c2a44303f18e4ce2871a1bfac4d8b22403fa8ce281bd41ed1360679e964736f6c63430008190033","linkReferences":{}},"methodIdentifiers":{"RELATIVE_BROADCAST_PATH()":"2aa1c696","get_most_recent_deployment(string,uint256)":"e374cdf1","get_most_recent_deployment(string,uint256,string)":"3d363fe3","vm()":"3a768463"},"id":19}