{"abi":[{"type":"constructor","inputs":[{"name":"sadSvgImageURI","type":"string","internalType":"string"},{"name":"happySvgImageURI","type":"string","internalType":"string"}],"stateMutability":"nonpayable"},{"type":"function","name":"approve","inputs":[{"name":"to","type":"address","internalType":"address"},{"name":"tokenId","type":"uint256","internalType":"uint256"}],"outputs":[],"stateMutability":"nonpayable"},{"type":"function","name":"balanceOf","inputs":[{"name":"owner","type":"address","internalType":"address"}],"outputs":[{"name":"","type":"uint256","internalType":"uint256"}],"stateMutability":"view"},{"type":"function","name":"flipMood","inputs":[{"name":"tokenId","type":"uint256","internalType":"uint256"}],"outputs":[],"stateMutability":"nonpayable"},{"type":"function","name":"getApproved","inputs":[{"name":"tokenId","type":"uint256","internalType":"uint256"}],"outputs":[{"name":"","type":"address","internalType":"address"}],"stateMutability":"view"},{"type":"function","name":"isApprovedForAll","inputs":[{"name":"owner","type":"address","internalType":"address"},{"name":"operator","type":"address","internalType":"address"}],"outputs":[{"name":"","type":"bool","internalType":"bool"}],"stateMutability":"view"},{"type":"function","name":"mintNFT","inputs":[],"outputs":[],"stateMutability":"nonpayable"},{"type":"function","name":"name","inputs":[],"outputs":[{"name":"","type":"string","internalType":"string"}],"stateMutability":"view"},{"type":"function","name":"ownerOf","inputs":[{"name":"tokenId","type":"uint256","internalType":"uint256"}],"outputs":[{"name":"","type":"address","internalType":"address"}],"stateMutability":"view"},{"type":"function","name":"safeTransferFrom","inputs":[{"name":"from","type":"address","internalType":"address"},{"name":"to","type":"address","internalType":"address"},{"name":"tokenId","type":"uint256","internalType":"uint256"}],"outputs":[],"stateMutability":"nonpayable"},{"type":"function","name":"safeTransferFrom","inputs":[{"name":"from","type":"address","internalType":"address"},{"name":"to","type":"address","internalType":"address"},{"name":"tokenId","type":"uint256","internalType":"uint256"},{"name":"data","type":"bytes","internalType":"bytes"}],"outputs":[],"stateMutability":"nonpayable"},{"type":"function","name":"setApprovalForAll","inputs":[{"name":"operator","type":"address","internalType":"address"},{"name":"approved","type":"bool","internalType":"bool"}],"outputs":[],"stateMutability":"nonpayable"},{"type":"function","name":"supportsInterface","inputs":[{"name":"interfaceId","type":"bytes4","internalType":"bytes4"}],"outputs":[{"name":"","type":"bool","internalType":"bool"}],"stateMutability":"view"},{"type":"function","name":"symbol","inputs":[],"outputs":[{"name":"","type":"string","internalType":"string"}],"stateMutability":"view"},{"type":"function","name":"tokenURI","inputs":[{"name":"tokenId","type":"uint256","internalType":"uint256"}],"outputs":[{"name":"","type":"string","internalType":"string"}],"stateMutability":"view"},{"type":"function","name":"transferFrom","inputs":[{"name":"from","type":"address","internalType":"address"},{"name":"to","type":"address","internalType":"address"},{"name":"tokenId","type":"uint256","internalType":"uint256"}],"outputs":[],"stateMutability":"nonpayable"},{"type":"event","name":"Approval","inputs":[{"name":"owner","type":"address","indexed":true,"internalType":"address"},{"name":"approved","type":"address","indexed":true,"internalType":"address"},{"name":"tokenId","type":"uint256","indexed":true,"internalType":"uint256"}],"anonymous":false},{"type":"event","name":"ApprovalForAll","inputs":[{"name":"owner","type":"address","indexed":true,"internalType":"address"},{"name":"operator","type":"address","indexed":true,"internalType":"address"},{"name":"approved","type":"bool","indexed":false,"internalType":"bool"}],"anonymous":false},{"type":"event","name":"Transfer","inputs":[{"name":"from","type":"address","indexed":true,"internalType":"address"},{"name":"to","type":"address","indexed":true,"internalType":"address"},{"name":"tokenId","type":"uint256","indexed":true,"internalType":"uint256"}],"anonymous":false},{"type":"error","name":"ERC721IncorrectOwner","inputs":[{"name":"sender","type":"address","internalType":"address"},{"name":"tokenId","type":"uint256","internalType":"uint256"},{"name":"owner","type":"address","internalType":"address"}]},{"type":"error","name":"ERC721InsufficientApproval","inputs":[{"name":"operator","type":"address","internalType":"address"},{"name":"tokenId","type":"uint256","internalType":"uint256"}]},{"type":"error","name":"ERC721InvalidApprover","inputs":[{"name":"approver","type":"address","internalType":"address"}]},{"type":"error","name":"ERC721InvalidOperator","inputs":[{"name":"operator","type":"address","internalType":"address"}]},{"type":"error","name":"ERC721InvalidOwner","inputs":[{"name":"owner","type":"address","internalType":"address"}]},{"type":"error","name":"ERC721InvalidReceiver","inputs":[{"name":"receiver","type":"address","internalType":"address"}]},{"type":"error","name":"ERC721InvalidSender","inputs":[{"name":"sender","type":"address","internalType":"address"}]},{"type":"error","name":"ERC721NonexistentToken","inputs":[{"name":"tokenId","type":"uint256","internalType":"uint256"}]},{"type":"error","name":"MoodNFT__CantFlipWhenNotOwner","inputs":[]}],"bytecode":{"object":"0x608060405234801561001057600080fd5b506040516116ac3803806116ac83398101604081905261002f9161016d565b60405180604001604052806007815260200166135bdbd913919560ca1b8152506040518060400160405280600281526020016126a760f11b8152508160009081610079919061025b565b506001610086828261025b565b5050600060065550600761009a838261025b565b5060086100a7828261025b565b50505061031a565b634e487b7160e01b600052604160045260246000fd5b600082601f8301126100d657600080fd5b81516001600160401b03808211156100f0576100f06100af565b604051601f8301601f19908116603f01168101908282118183101715610118576101186100af565b816040528381526020925086602085880101111561013557600080fd5b600091505b83821015610157578582018301518183018401529082019061013a565b6000602085830101528094505050505092915050565b6000806040838503121561018057600080fd5b82516001600160401b038082111561019757600080fd5b6101a3868387016100c5565b935060208501519150808211156101b957600080fd5b506101c6858286016100c5565b9150509250929050565b600181811c908216806101e457607f821691505b60208210810361020457634e487b7160e01b600052602260045260246000fd5b50919050565b601f821115610256576000816000526020600020601f850160051c810160208610156102335750805b601f850160051c820191505b818110156102525782815560010161023f565b5050505b505050565b81516001600160401b03811115610274576102746100af565b6102888161028284546101d0565b8461020a565b602080601f8311600181146102bd57600084156102a55750858301515b600019600386901b1c1916600185901b178555610252565b600085815260208120601f198616915b828110156102ec578886015182559484019460019091019084016102cd565b508582101561030a5787850151600019600388901b60f8161c191681555b5050505050600190811b01905550565b611383806103296000396000f3fe608060405234801561001057600080fd5b50600436106100f55760003560e01c80636352211e11610097578063b88d4fde11610066578063b88d4fde146101f4578063c1a147a014610207578063c87b56dd1461021a578063e985e9c51461022d57600080fd5b80636352211e146101a557806370a08231146101b857806395d89b41146101d9578063a22cb465146101e157600080fd5b8063095ea7b3116100d3578063095ea7b31461016257806314f710fe1461017757806323b872dd1461017f57806342842e0e1461019257600080fd5b806301ffc9a7146100fa57806306fdde0314610122578063081812fc14610137575b600080fd5b61010d610108366004610e39565b610240565b60405190151581526020015b60405180910390f35b61012a610292565b6040516101199190610ead565b61014a610145366004610ec0565b610324565b6040516001600160a01b039091168152602001610119565b610175610170366004610ef5565b61034d565b005b61017561035c565b61017561018d366004610f1f565b610396565b6101756101a0366004610f1f565b610426565b61014a6101b3366004610ec0565b610446565b6101cb6101c6366004610f5b565b610451565b604051908152602001610119565b61012a610499565b6101756101ef366004610f76565b6104a8565b610175610202366004610fc8565b6104b3565b610175610215366004610ec0565b6104ca565b61012a610228366004610ec0565b61054f565b61010d61023b3660046110a4565b610728565b60006001600160e01b031982166380ac58cd60e01b148061027157506001600160e01b03198216635b5e139f60e01b145b8061028c57506301ffc9a760e01b6001600160e01b03198316145b92915050565b6060600080546102a1906110d7565b80601f01602080910402602001604051908101604052809291908181526020018280546102cd906110d7565b801561031a5780601f106102ef5761010080835404028352916020019161031a565b820191906000526020600020905b8154815290600101906020018083116102fd57829003601f168201915b5050505050905090565b600061032f82610756565b506000828152600460205260409020546001600160a01b031661028c565b61035882823361078f565b5050565b6103683360065461079c565b600680546000908152600960205260408120805460ff191690558154919061038f8361113d565b9190505550565b6001600160a01b0382166103c557604051633250574960e11b8152600060048201526024015b60405180910390fd5b60006103d28383336107b6565b9050836001600160a01b0316816001600160a01b031614610420576040516364283d7b60e01b81526001600160a01b03808616600483015260248201849052821660448201526064016103bc565b50505050565b610441838383604051806020016040528060008152506104b3565b505050565b600061028c82610756565b60006001600160a01b03821661047d576040516322718ad960e21b8152600060048201526024016103bc565b506001600160a01b031660009081526003602052604090205490565b6060600180546102a1906110d7565b6103583383836108af565b6104be848484610396565b6104208484848461094e565b6104d5333383610a77565b6104f257604051638ee07ddd60e01b815260040160405180910390fd5b60008181526009602052604081205460ff16600181111561051557610515611111565b03610535576000908152600960205260409020805460ff19166001179055565b6000818152600960205260409020805460ff191690555b50565b6060806000808481526009602052604090205460ff16600181111561057657610576611111565b0361060d5760088054610588906110d7565b80601f01602080910402602001604051908101604052809291908181526020018280546105b4906110d7565b80156106015780601f106105d657610100808354040283529160200191610601565b820191906000526020600020905b8154815290600101906020018083116105e457829003601f168201915b5050505050905061069b565b6007805461061a906110d7565b80601f0160208091040260200160405190810160405280929190818152602001828054610646906110d7565b80156106935780601f1061066857610100808354040283529160200191610693565b820191906000526020600020905b81548152906001019060200180831161067657829003601f168201915b505050505090505b60408051808201909152601d81527f646174613a6170706c69636174696f6e2f6a736f6e3b6261736536342c00000060208201526107006106da610292565b836040516020016106ec929190611156565b604051602081830303815290604052610add565b604051602001610711929190611238565b604051602081830303815290604052915050919050565b6001600160a01b03918216600090815260056020908152604080832093909416825291909152205460ff1690565b6000818152600260205260408120546001600160a01b03168061028c57604051637e27328960e01b8152600481018490526024016103bc565b6104418383836001610c3d565b610358828260405180602001604052806000815250610d43565b6000828152600260205260408120546001600160a01b03908116908316156107e3576107e3818486610d5a565b6001600160a01b0381161561082157610800600085600080610c3d565b6001600160a01b038116600090815260036020526040902080546000190190555b6001600160a01b03851615610850576001600160a01b0385166000908152600360205260409020805460010190555b60008481526002602052604080822080546001600160a01b0319166001600160a01b0389811691821790925591518793918516917fddf252ad1be2c89b69c2b068fc378daa952ba7f163c4a11628f55a4df523b3ef91a4949350505050565b6001600160a01b0382166108e157604051630b61174360e31b81526001600160a01b03831660048201526024016103bc565b6001600160a01b03838116600081815260056020908152604080832094871680845294825291829020805460ff191686151590811790915591519182527f17307eab39ab6107e8899845ad3d59bd9653f200f220920489ca2b5937696c31910160405180910390a3505050565b6001600160a01b0383163b1561042057604051630a85bd0160e11b81526001600160a01b0384169063150b7a0290610990903390889087908790600401611267565b6020604051808303816000875af19250505080156109cb575060408051601f3d908101601f191682019092526109c8918101906112a4565b60015b610a34573d8080156109f9576040519150601f19603f3d011682016040523d82523d6000602084013e6109fe565b606091505b508051600003610a2c57604051633250574960e11b81526001600160a01b03851660048201526024016103bc565b805181602001fd5b6001600160e01b03198116630a85bd0160e11b14610a7057604051633250574960e11b81526001600160a01b03851660048201526024016103bc565b5050505050565b60006001600160a01b03831615801590610ad55750826001600160a01b0316846001600160a01b03161480610ab15750610ab18484610728565b80610ad557506000828152600460205260409020546001600160a01b038481169116145b949350505050565b60608151600003610afc57505060408051602081019091526000815290565b600060405180606001604052806040815260200161130e6040913990506000600384516002610b2b91906112c1565b610b3591906112d4565b610b409060046112f6565b67ffffffffffffffff811115610b5857610b58610fb2565b6040519080825280601f01601f191660200182016040528015610b82576020820181803683370190505b50905060018201602082018586518701602081018051600082525b82841015610bf8576003840193508351603f8160121c168701518653600186019550603f81600c1c168701518653600186019550603f8160061c168701518653600186019550603f8116870151865350600185019450610b9d565b9052505085516003900660018114610c175760028114610c2a57610c32565b603d6001830353603d6002830353610c32565b603d60018303535b509195945050505050565b8080610c5157506001600160a01b03821615155b15610d13576000610c6184610756565b90506001600160a01b03831615801590610c8d5750826001600160a01b0316816001600160a01b031614155b8015610ca05750610c9e8184610728565b155b15610cc95760405163a9fbf51f60e01b81526001600160a01b03841660048201526024016103bc565b8115610d115783856001600160a01b0316826001600160a01b03167f8c5be1e5ebec7d5bd14f71427d1e84f3dd0314c0f7b2291e5b200ac8c7c3b92560405160405180910390a45b505b5050600090815260046020526040902080546001600160a01b0319166001600160a01b0392909216919091179055565b610d4d8383610dbe565b610441600084848461094e565b610d65838383610a77565b610441576001600160a01b038316610d9357604051637e27328960e01b8152600481018290526024016103bc565b60405163177e802f60e01b81526001600160a01b0383166004820152602481018290526044016103bc565b6001600160a01b038216610de857604051633250574960e11b8152600060048201526024016103bc565b6000610df6838360006107b6565b90506001600160a01b03811615610441576040516339e3563760e11b8152600060048201526024016103bc565b6001600160e01b03198116811461054c57600080fd5b600060208284031215610e4b57600080fd5b8135610e5681610e23565b9392505050565b60005b83811015610e78578181015183820152602001610e60565b50506000910152565b60008151808452610e99816020860160208601610e5d565b601f01601f19169290920160200192915050565b602081526000610e566020830184610e81565b600060208284031215610ed257600080fd5b5035919050565b80356001600160a01b0381168114610ef057600080fd5b919050565b60008060408385031215610f0857600080fd5b610f1183610ed9565b946020939093013593505050565b600080600060608486031215610f3457600080fd5b610f3d84610ed9565b9250610f4b60208501610ed9565b9150604084013590509250925092565b600060208284031215610f6d57600080fd5b610e5682610ed9565b60008060408385031215610f8957600080fd5b610f9283610ed9565b915060208301358015158114610fa757600080fd5b809150509250929050565b634e487b7160e01b600052604160045260246000fd5b60008060008060808587031215610fde57600080fd5b610fe785610ed9565b9350610ff560208601610ed9565b925060408501359150606085013567ffffffffffffffff8082111561101957600080fd5b818701915087601f83011261102d57600080fd5b81358181111561103f5761103f610fb2565b604051601f8201601f19908116603f0116810190838211818310171561106757611067610fb2565b816040528281528a602084870101111561108057600080fd5b82602086016020830137600060208483010152809550505050505092959194509250565b600080604083850312156110b757600080fd5b6110c083610ed9565b91506110ce60208401610ed9565b90509250929050565b600181811c908216806110eb57607f821691505b60208210810361110b57634e487b7160e01b600052602260045260246000fd5b50919050565b634e487b7160e01b600052602160045260246000fd5b634e487b7160e01b600052601160045260246000fd5b60006001820161114f5761114f611127565b5060010190565b693d913730b6b2911d101160b11b8152825160009061117c81600a850160208801610e5d565b7f222c206465736372697074696f6e223a202241204e4654207468617420726566600a918401918201527f6c6563747320746865206f776e657273206d6f6f642e22205b7b227472616974602a8201527f5f74797065223a20226d6f6f64696e657373222c202276616c7565223a203130604a8201526e18103eae96101134b6b0b3b291101160891b606a820152835161121d816079840160208801610e5d565b61227d60f01b60799290910191820152607b01949350505050565b6000835161124a818460208801610e5d565b83519083019061125e818360208801610e5d565b01949350505050565b6001600160a01b038581168252841660208201526040810183905260806060820181905260009061129a90830184610e81565b9695505050505050565b6000602082840312156112b657600080fd5b8151610e5681610e23565b8082018082111561028c5761028c611127565b6000826112f157634e487b7160e01b600052601260045260246000fd5b500490565b808202811582820484141761028c5761028c61112756fe4142434445464748494a4b4c4d4e4f505152535455565758595a6162636465666768696a6b6c6d6e6f707172737475767778797a303132333435363738392b2fa264697066735822122097afa4355d76a2144411ee09920a220245481062fbc3df9bfadb3fe440a33d6d64736f6c63430008190033","linkReferences":{}},"methodIdentifiers":{"approve(address,uint256)":"095ea7b3","balanceOf(address)":"70a08231","flipMood(uint256)":"c1a147a0","getApproved(uint256)":"081812fc","isApprovedForAll(address,address)":"e985e9c5","mintNFT()":"14f710fe","name()":"06fdde03","ownerOf(uint256)":"6352211e","safeTransferFrom(address,address,uint256)":"42842e0e","safeTransferFrom(address,address,uint256,bytes)":"b88d4fde","setApprovalForAll(address,bool)":"a22cb465","supportsInterface(bytes4)":"01ffc9a7","symbol()":"95d89b41","tokenURI(uint256)":"c87b56dd","transferFrom(address,address,uint256)":"23b872dd"},"id":37}