{"abi":[{"type":"constructor","inputs":[{"name":"sadSvgImageURI","type":"string","internalType":"string"},{"name":"happySvgImageURI","type":"string","internalType":"string"}],"stateMutability":"nonpayable"},{"type":"function","name":"approve","inputs":[{"name":"to","type":"address","internalType":"address"},{"name":"tokenId","type":"uint256","internalType":"uint256"}],"outputs":[],"stateMutability":"nonpayable"},{"type":"function","name":"balanceOf","inputs":[{"name":"owner","type":"address","internalType":"address"}],"outputs":[{"name":"","type":"uint256","internalType":"uint256"}],"stateMutability":"view"},{"type":"function","name":"getApproved","inputs":[{"name":"tokenId","type":"uint256","internalType":"uint256"}],"outputs":[{"name":"","type":"address","internalType":"address"}],"stateMutability":"view"},{"type":"function","name":"isApprovedForAll","inputs":[{"name":"owner","type":"address","internalType":"address"},{"name":"operator","type":"address","internalType":"address"}],"outputs":[{"name":"","type":"bool","internalType":"bool"}],"stateMutability":"view"},{"type":"function","name":"mintNFT","inputs":[],"outputs":[],"stateMutability":"nonpayable"},{"type":"function","name":"name","inputs":[],"outputs":[{"name":"","type":"string","internalType":"string"}],"stateMutability":"view"},{"type":"function","name":"ownerOf","inputs":[{"name":"tokenId","type":"uint256","internalType":"uint256"}],"outputs":[{"name":"","type":"address","internalType":"address"}],"stateMutability":"view"},{"type":"function","name":"safeTransferFrom","inputs":[{"name":"from","type":"address","internalType":"address"},{"name":"to","type":"address","internalType":"address"},{"name":"tokenId","type":"uint256","internalType":"uint256"}],"outputs":[],"stateMutability":"nonpayable"},{"type":"function","name":"safeTransferFrom","inputs":[{"name":"from","type":"address","internalType":"address"},{"name":"to","type":"address","internalType":"address"},{"name":"tokenId","type":"uint256","internalType":"uint256"},{"name":"data","type":"bytes","internalType":"bytes"}],"outputs":[],"stateMutability":"nonpayable"},{"type":"function","name":"setApprovalForAll","inputs":[{"name":"operator","type":"address","internalType":"address"},{"name":"approved","type":"bool","internalType":"bool"}],"outputs":[],"stateMutability":"nonpayable"},{"type":"function","name":"supportsInterface","inputs":[{"name":"interfaceId","type":"bytes4","internalType":"bytes4"}],"outputs":[{"name":"","type":"bool","internalType":"bool"}],"stateMutability":"view"},{"type":"function","name":"symbol","inputs":[],"outputs":[{"name":"","type":"string","internalType":"string"}],"stateMutability":"view"},{"type":"function","name":"tokenURI","inputs":[{"name":"tokenId","type":"uint256","internalType":"uint256"}],"outputs":[{"name":"","type":"string","internalType":"string"}],"stateMutability":"view"},{"type":"function","name":"transferFrom","inputs":[{"name":"from","type":"address","internalType":"address"},{"name":"to","type":"address","internalType":"address"},{"name":"tokenId","type":"uint256","internalType":"uint256"}],"outputs":[],"stateMutability":"nonpayable"},{"type":"event","name":"Approval","inputs":[{"name":"owner","type":"address","indexed":true,"internalType":"address"},{"name":"approved","type":"address","indexed":true,"internalType":"address"},{"name":"tokenId","type":"uint256","indexed":true,"internalType":"uint256"}],"anonymous":false},{"type":"event","name":"ApprovalForAll","inputs":[{"name":"owner","type":"address","indexed":true,"internalType":"address"},{"name":"operator","type":"address","indexed":true,"internalType":"address"},{"name":"approved","type":"bool","indexed":false,"internalType":"bool"}],"anonymous":false},{"type":"event","name":"Transfer","inputs":[{"name":"from","type":"address","indexed":true,"internalType":"address"},{"name":"to","type":"address","indexed":true,"internalType":"address"},{"name":"tokenId","type":"uint256","indexed":true,"internalType":"uint256"}],"anonymous":false},{"type":"error","name":"ERC721IncorrectOwner","inputs":[{"name":"sender","type":"address","internalType":"address"},{"name":"tokenId","type":"uint256","internalType":"uint256"},{"name":"owner","type":"address","internalType":"address"}]},{"type":"error","name":"ERC721InsufficientApproval","inputs":[{"name":"operator","type":"address","internalType":"address"},{"name":"tokenId","type":"uint256","internalType":"uint256"}]},{"type":"error","name":"ERC721InvalidApprover","inputs":[{"name":"approver","type":"address","internalType":"address"}]},{"type":"error","name":"ERC721InvalidOperator","inputs":[{"name":"operator","type":"address","internalType":"address"}]},{"type":"error","name":"ERC721InvalidOwner","inputs":[{"name":"owner","type":"address","internalType":"address"}]},{"type":"error","name":"ERC721InvalidReceiver","inputs":[{"name":"receiver","type":"address","internalType":"address"}]},{"type":"error","name":"ERC721InvalidSender","inputs":[{"name":"sender","type":"address","internalType":"address"}]},{"type":"error","name":"ERC721NonexistentToken","inputs":[{"name":"tokenId","type":"uint256","internalType":"uint256"}]}],"bytecode":{"object":"0x608060405234801561001057600080fd5b5060405161160c38038061160c83398101604081905261002f9161016d565b60405180604001604052806007815260200166135bdbd913919560ca1b8152506040518060400160405280600281526020016126a760f11b8152508160009081610079919061025b565b506001610086828261025b565b5050600060065550600761009a838261025b565b5060086100a7828261025b565b50505061031a565b634e487b7160e01b600052604160045260246000fd5b600082601f8301126100d657600080fd5b81516001600160401b03808211156100f0576100f06100af565b604051601f8301601f19908116603f01168101908282118183101715610118576101186100af565b816040528381526020925086602085880101111561013557600080fd5b600091505b83821015610157578582018301518183018401529082019061013a565b6000602085830101528094505050505092915050565b6000806040838503121561018057600080fd5b82516001600160401b038082111561019757600080fd5b6101a3868387016100c5565b935060208501519150808211156101b957600080fd5b506101c6858286016100c5565b9150509250929050565b600181811c908216806101e457607f821691505b60208210810361020457634e487b7160e01b600052602260045260246000fd5b50919050565b601f821115610256576000816000526020600020601f850160051c810160208610156102335750805b601f850160051c820191505b818110156102525782815560010161023f565b5050505b505050565b81516001600160401b03811115610274576102746100af565b6102888161028284546101d0565b8461020a565b602080601f8311600181146102bd57600084156102a55750858301515b600019600386901b1c1916600185901b178555610252565b600085815260208120601f198616915b828110156102ec578886015182559484019460019091019084016102cd565b508582101561030a5787850151600019600388901b60f8161c191681555b5050505050600190811b01905550565b6112e3806103296000396000f3fe608060405234801561001057600080fd5b50600436106100ea5760003560e01c80636352211e1161008c578063a22cb46511610066578063a22cb465146101d6578063b88d4fde146101e9578063c87b56dd146101fc578063e985e9c51461020f57600080fd5b80636352211e1461019a57806370a08231146101ad57806395d89b41146101ce57600080fd5b8063095ea7b3116100c8578063095ea7b31461015757806314f710fe1461016c57806323b872dd1461017457806342842e0e1461018757600080fd5b806301ffc9a7146100ef57806306fdde0314610117578063081812fc1461012c575b600080fd5b6101026100fd366004610d99565b610222565b60405190151581526020015b60405180910390f35b61011f610274565b60405161010e9190610e0d565b61013f61013a366004610e20565b610306565b6040516001600160a01b03909116815260200161010e565b61016a610165366004610e55565b61032f565b005b61016a61033e565b61016a610182366004610e7f565b610378565b61016a610195366004610e7f565b610408565b61013f6101a8366004610e20565b610428565b6101c06101bb366004610ebb565b610433565b60405190815260200161010e565b61011f61047b565b61016a6101e4366004610ed6565b61048a565b61016a6101f7366004610f28565b610495565b61011f61020a366004610e20565b6104ac565b61010261021d366004611004565b610685565b60006001600160e01b031982166380ac58cd60e01b148061025357506001600160e01b03198216635b5e139f60e01b145b8061026e57506301ffc9a760e01b6001600160e01b03198316145b92915050565b60606000805461028390611037565b80601f01602080910402602001604051908101604052809291908181526020018280546102af90611037565b80156102fc5780601f106102d1576101008083540402835291602001916102fc565b820191906000526020600020905b8154815290600101906020018083116102df57829003601f168201915b5050505050905090565b6000610311826106b3565b506000828152600460205260409020546001600160a01b031661026e565b61033a8282336106ec565b5050565b61034a336006546106f9565b600680546000908152600960205260408120805460ff19169055815491906103718361109d565b9190505550565b6001600160a01b0382166103a757604051633250574960e11b8152600060048201526024015b60405180910390fd5b60006103b4838333610713565b9050836001600160a01b0316816001600160a01b031614610402576040516364283d7b60e01b81526001600160a01b038086166004830152602482018490528216604482015260640161039e565b50505050565b61042383838360405180602001604052806000815250610495565b505050565b600061026e826106b3565b60006001600160a01b03821661045f576040516322718ad960e21b81526000600482015260240161039e565b506001600160a01b031660009081526003602052604090205490565b60606001805461028390611037565b61033a33838361080c565b6104a0848484610378565b610402848484846108ab565b6060806000808481526009602052604090205460ff1660018111156104d3576104d3611071565b0361056a57600880546104e590611037565b80601f016020809104026020016040519081016040528092919081815260200182805461051190611037565b801561055e5780601f106105335761010080835404028352916020019161055e565b820191906000526020600020905b81548152906001019060200180831161054157829003601f168201915b505050505090506105f8565b6007805461057790611037565b80601f01602080910402602001604051908101604052809291908181526020018280546105a390611037565b80156105f05780601f106105c5576101008083540402835291602001916105f0565b820191906000526020600020905b8154815290600101906020018083116105d357829003601f168201915b505050505090505b60408051808201909152601c81527f646174613a6170706c69636174696f2f6a736f6e3b6261736536342c00000000602082015261065d610637610274565b836040516020016106499291906110b6565b6040516020818303038152906040526109d4565b60405160200161066e929190611198565b604051602081830303815290604052915050919050565b6001600160a01b03918216600090815260056020908152604080832093909416825291909152205460ff1690565b6000818152600260205260408120546001600160a01b03168061026e57604051637e27328960e01b81526004810184905260240161039e565b6104238383836001610b34565b61033a828260405180602001604052806000815250610c3a565b6000828152600260205260408120546001600160a01b039081169083161561074057610740818486610c51565b6001600160a01b0381161561077e5761075d600085600080610b34565b6001600160a01b038116600090815260036020526040902080546000190190555b6001600160a01b038516156107ad576001600160a01b0385166000908152600360205260409020805460010190555b60008481526002602052604080822080546001600160a01b0319166001600160a01b0389811691821790925591518793918516917fddf252ad1be2c89b69c2b068fc378daa952ba7f163c4a11628f55a4df523b3ef91a4949350505050565b6001600160a01b03821661083e57604051630b61174360e31b81526001600160a01b038316600482015260240161039e565b6001600160a01b03838116600081815260056020908152604080832094871680845294825291829020805460ff191686151590811790915591519182527f17307eab39ab6107e8899845ad3d59bd9653f200f220920489ca2b5937696c31910160405180910390a3505050565b6001600160a01b0383163b1561040257604051630a85bd0160e11b81526001600160a01b0384169063150b7a02906108ed9033908890879087906004016111c7565b6020604051808303816000875af1925050508015610928575060408051601f3d908101601f1916820190925261092591810190611204565b60015b610991573d808015610956576040519150601f19603f3d011682016040523d82523d6000602084013e61095b565b606091505b50805160000361098957604051633250574960e11b81526001600160a01b038516600482015260240161039e565b805181602001fd5b6001600160e01b03198116630a85bd0160e11b146109cd57604051633250574960e11b81526001600160a01b038516600482015260240161039e565b5050505050565b606081516000036109f357505060408051602081019091526000815290565b600060405180606001604052806040815260200161126e6040913990506000600384516002610a229190611221565b610a2c9190611234565b610a37906004611256565b67ffffffffffffffff811115610a4f57610a4f610f12565b6040519080825280601f01601f191660200182016040528015610a79576020820181803683370190505b50905060018201602082018586518701602081018051600082525b82841015610aef576003840193508351603f8160121c168701518653600186019550603f81600c1c168701518653600186019550603f8160061c168701518653600186019550603f8116870151865350600185019450610a94565b9052505085516003900660018114610b0e5760028114610b2157610b29565b603d6001830353603d6002830353610b29565b603d60018303535b509195945050505050565b8080610b4857506001600160a01b03821615155b15610c0a576000610b58846106b3565b90506001600160a01b03831615801590610b845750826001600160a01b0316816001600160a01b031614155b8015610b975750610b958184610685565b155b15610bc05760405163a9fbf51f60e01b81526001600160a01b038416600482015260240161039e565b8115610c085783856001600160a01b0316826001600160a01b03167f8c5be1e5ebec7d5bd14f71427d1e84f3dd0314c0f7b2291e5b200ac8c7c3b92560405160405180910390a45b505b5050600090815260046020526040902080546001600160a01b0319166001600160a01b0392909216919091179055565b610c448383610cb5565b61042360008484846108ab565b610c5c838383610d1a565b610423576001600160a01b038316610c8a57604051637e27328960e01b81526004810182905260240161039e565b60405163177e802f60e01b81526001600160a01b03831660048201526024810182905260440161039e565b6001600160a01b038216610cdf57604051633250574960e11b81526000600482015260240161039e565b6000610ced83836000610713565b90506001600160a01b03811615610423576040516339e3563760e11b81526000600482015260240161039e565b60006001600160a01b03831615801590610d785750826001600160a01b0316846001600160a01b03161480610d545750610d548484610685565b80610d7857506000828152600460205260409020546001600160a01b038481169116145b949350505050565b6001600160e01b031981168114610d9657600080fd5b50565b600060208284031215610dab57600080fd5b8135610db681610d80565b9392505050565b60005b83811015610dd8578181015183820152602001610dc0565b50506000910152565b60008151808452610df9816020860160208601610dbd565b601f01601f19169290920160200192915050565b602081526000610db66020830184610de1565b600060208284031215610e3257600080fd5b5035919050565b80356001600160a01b0381168114610e5057600080fd5b919050565b60008060408385031215610e6857600080fd5b610e7183610e39565b946020939093013593505050565b600080600060608486031215610e9457600080fd5b610e9d84610e39565b9250610eab60208501610e39565b9150604084013590509250925092565b600060208284031215610ecd57600080fd5b610db682610e39565b60008060408385031215610ee957600080fd5b610ef283610e39565b915060208301358015158114610f0757600080fd5b809150509250929050565b634e487b7160e01b600052604160045260246000fd5b60008060008060808587031215610f3e57600080fd5b610f4785610e39565b9350610f5560208601610e39565b925060408501359150606085013567ffffffffffffffff80821115610f7957600080fd5b818701915087601f830112610f8d57600080fd5b813581811115610f9f57610f9f610f12565b604051601f8201601f19908116603f01168101908382118183101715610fc757610fc7610f12565b816040528281528a6020848701011115610fe057600080fd5b82602086016020830137600060208483010152809550505050505092959194509250565b6000806040838503121561101757600080fd5b61102083610e39565b915061102e60208401610e39565b90509250929050565b600181811c9082168061104b57607f821691505b60208210810361106b57634e487b7160e01b600052602260045260246000fd5b50919050565b634e487b7160e01b600052602160045260246000fd5b634e487b7160e01b600052601160045260246000fd5b6000600182016110af576110af611087565b5060010190565b693d913730b6b2911d101160b11b815282516000906110dc81600a850160208801610dbd565b7f222c206465736372697074696f6e223a202241204e4654207468617420726566600a918401918201527f6c6563747320746865206f776e657273206d6f6f642e22205b7b227472616974602a8201527f5f74797065223a20226d6f6f64696e657373222c202276616c7565223a203130604a8201526e18103eae96101134b6b0b3b291101160891b606a820152835161117d816079840160208801610dbd565b61227d60f01b60799290910191820152607b01949350505050565b600083516111aa818460208801610dbd565b8351908301906111be818360208801610dbd565b01949350505050565b6001600160a01b03858116825284166020820152604081018390526080606082018190526000906111fa90830184610de1565b9695505050505050565b60006020828403121561121657600080fd5b8151610db681610d80565b8082018082111561026e5761026e611087565b60008261125157634e487b7160e01b600052601260045260246000fd5b500490565b808202811582820484141761026e5761026e61108756fe4142434445464748494a4b4c4d4e4f505152535455565758595a6162636465666768696a6b6c6d6e6f707172737475767778797a303132333435363738392b2fa264697066735822122040f26dd11b1a5bf34cae14e59a707500a573f21357eee480c24743b0439c3ccd64736f6c63430008190033","linkReferences":{}},"methodIdentifiers":{"approve(address,uint256)":"095ea7b3","balanceOf(address)":"70a08231","getApproved(uint256)":"081812fc","isApprovedForAll(address,address)":"e985e9c5","mintNFT()":"14f710fe","name()":"06fdde03","ownerOf(uint256)":"6352211e","safeTransferFrom(address,address,uint256)":"42842e0e","safeTransferFrom(address,address,uint256,bytes)":"b88d4fde","setApprovalForAll(address,bool)":"a22cb465","supportsInterface(bytes4)":"01ffc9a7","symbol()":"95d89b41","tokenURI(uint256)":"c87b56dd","transferFrom(address,address,uint256)":"23b872dd"},"id":38}