{"abi":[{"type":"function","name":"RELATIVE_BROADCAST_PATH","inputs":[],"outputs":[{"name":"","type":"string","internalType":"string"}],"stateMutability":"view"},{"type":"function","name":"get_most_recent_deployment","inputs":[{"name":"contractName","type":"string","internalType":"string"},{"name":"chainId","type":"uint256","internalType":"uint256"},{"name":"relativeBroadcastPath","type":"string","internalType":"string"}],"outputs":[{"name":"","type":"address","internalType":"address"}],"stateMutability":"view"},{"type":"function","name":"get_most_recent_deployment","inputs":[{"name":"contractName","type":"string","internalType":"string"},{"name":"chainId","type":"uint256","internalType":"uint256"}],"outputs":[{"name":"","type":"address","internalType":"address"}],"stateMutability":"view"},{"type":"function","name":"vm","inputs":[],"outputs":[{"name":"","type":"Vm","internalType":"contract Vm"}],"stateMutability":"view"}],"bytecode":{"object":"0x6080806040523460195761140f908161001f823930815050f35b600080fdfe6040608081526004908136101561001557600080fd5b6000803560e01c80632aa1c696146101225780633a768463146100f45780633d363fe3146100a15763e374cdf11461004c57600080fd5b8160031936011261009e578235906001600160401b03821161009e575061007b60209361008d9236910161022e565b6100836101bf565b9060243590610332565b90516001600160a01b039091168152f35b80fd5b509160603660031901126100f0576001600160401b0381358181116100ec576100cd903690840161022e565b9360443591821161009e57509261008361008d9260209536910161022e565b8480fd5b8280fd5b50908160031936011261011e5760209051737109709ecfa91a80626ff3989d68f67f5b1dd12d8152f35b5080fd5b50908160031936011261011e5761014e9061013b6101bf565b9051918291602083526020830190610209565b0390f35b604081019081106001600160401b0382111761016d57604052565b634e487b7160e01b600052604160045260246000fd5b90601f801991011681019081106001600160401b0382111761016d57604052565b6001600160401b03811161016d57601f01601f191660200190565b604051906101cc82610152565b600b82526a0b8bd89c9bd85918d85cdd60aa1b6020830152565b60005b8381106101f95750506000910152565b81810151838201526020016101e9565b90602091610222815180928185528580860191016101e6565b601f01601f1916010190565b81601f8201121561027557803590610245826101a4565b926102536040519485610183565b8284526020838301011161027557816000926020809301838601378301015290565b600080fd5b6001600160401b03811161016d5760051b60200190565b81601f820112156102755780516102a7816101a4565b926102b56040519485610183565b81845260208284010111610275576102d391602080850191016101e6565b90565b5190811515820361027557565b80518210156102f75760209160051b010190565b634e487b7160e01b600052603260045260246000fd5b906020828203126102755781516001600160401b038111610275576102d39201610291565b60009361035e6000869560405180938192630525e1db60e21b8352604060048401526044830190610209565b600360248301520381737109709ecfa91a80626ff3989d68f67f5b1dd12d5afa908115610c3d57600091610df7575b509060005b8251811015610d3e5760206103a782856102e3565b5101805160405163348051d760e11b81526004810188905290600082602481737109709ecfa91a80626ff3989d68f67f5b1dd12d5afa908115610c3d576103f692600092610d23575b50610fbc565b80610cea575b61040a575b50600101610392565b955060019561043860008251604051809381926360f9bb1160e01b8352602060048401526024830190610209565b0381737109709ecfa91a80626ff3989d68f67f5b1dd12d5afa908115610c3d57600091610cc9575b50604051916356eef15b60e11b8352604060048401526104836044840183610209565b9260208160408187036902e74696d657374616d760b41b84600319998a84016024870152600a815201520181737109709ecfa91a80626ff3989d68f67f5b1dd12d5afa908115610c3d57600091610c97575b506104e2575b5050610401565b9860008061059b94959b516105376105456040519261050084610152565b600c84526b0283937b1b2b9b9b4b7339d160a51b60208501526040519283916020830195634b5c427760e01b875260248401611093565b03601f198101835282610183565b51906a636f6e736f6c652e6c6f675afa5092600060405161056581610152565b600e81526d242e7472616e73616374696f6e7360901b6020820152604051809581926385940ef160e01b83528660048401611093565b0381737109709ecfa91a80626ff3989d68f67f5b1dd12d5afa928315610c3d57600093610c49575b5061060691604060209274242e7472616e73616374696f6e735b305d2e72706360581b8483519687956314a29a0f60e21b87528560048801526044870190610209565b85810393840160248701526015815201520181737109709ecfa91a80626ff3989d68f67f5b1dd12d5afa908115610c3d57600091610c03575b50156109435780518101602082820312610275576020820151916001600160401b0383116102755760208201603f8483010112156102755760208382010151906106888261027a565b936106966040519586610183565b82855260208501906020850160408560051b83860101011161027557604081840101915b60408560051b83860101018310610747575050505050506106e381516106de6112f3565b61132c565b866000815b6106fd575b5050506001905b969038806104db565b82518110156107425761071081846102e3565b5161071f886060830151611384565b61072d575b508101816106e8565b604001516001600160a01b0316935081610724565b6106ed565b82516001600160401b0381116102755761014085840182018803601f1901126102755760405191826101408101106001600160401b036101408501111761016d5761014083016040526040828588010101516001600160401b038111610275576107be90604060208b019185888b010101016110b8565b835260609283838689010101516001600160401b038111610275576107f090604060208c019186898c01010101610291565b602082015260806108068185888b010101611137565b604083015260a0948585888b010101516001600160401b0381116102755761083b9060208d0190898c01880101604001610291565b9083015260c0908185888b010101516001600160401b0381116102755761086f9060208d0190898c01880101604001610291565b9083015260e0948585888b0101015190830152610100906108958286898c0101016102d6565b90830152610120948585888b010101516001600160401b038111610275576108ca9060208d0190898c01880101604001610291565b9083015261014084878a010101516001600160401b038111610275576108fd90604060208d0191878a8d0101010161114b565b9082015261016083868901010151936001600160401b038511610275576109346020959460408796878e01928a8d01010101610291565b908201528152019201916106ba565b80518101602082820312610275576020820151916001600160401b0383116102755760208201603f8483010112156102755760208382010151906109868261027a565b936109946040519586610183565b82855260208501906020850160408560051b83860101011161027557604081840101915b60408560051b83860101018310610a3b575050505050506109dc81516106de6112f3565b866000815b6109f1575b5050506001906106f4565b8251811015610a3657610a0481846102e3565b51610a13886060830151611384565b610a21575b508101816109e1565b604001516001600160a01b0316935081610a18565b6109e6565b82516001600160401b0381116102755761012085840182018803601f1901126102755760405191826101208101106001600160401b036101208501111761016d5761012083016040526040828588010101516001600160401b03811161027557610ab290604060208b019185888b010101016110b8565b835260609283838689010101516001600160401b03811161027557610ae490604060208c019186898c01010101610291565b6020820152608093610afb8585888b010101611137565b604083015260a0908185888b010101516001600160401b03811161027557610b309060208d0190898c01880101604001610291565b9083015260c0948585888b010101516001600160401b03811161027557610b649060208d0190898c01880101604001610291565b9083015260e0908185888b010101519083015261010094610b8a8686898c0101016102d6565b9083015261012084878a010101516001600160401b03811161027557610bbd90604060208d0191878a8d0101010161114b565b9082015261014083868901010151936001600160401b03851161027557610bf46020959460408796878e01928a8d01010101610291565b908201528152019201916109b8565b906020823d602011610c35575b81610c1d60209383610183565b8101031261009e5750610c2f906102d6565b3861063f565b3d9150610c10565b6040513d6000823e3d90fd5b90923d8082843e610c5a8184610183565b82019160208184031261011e578051916001600160401b03831161009e5750610c8d602093610606959360409301610291565b94925050916105c3565b906020823d602011610cc1575b81610cb160209383610183565b8101031261009e575051386104d5565b3d9150610ca4565b610ce4913d8091833e610cdc8183610183565b81019061030d565b38610460565b50610d1e815160405190610cfd82610152565b600f82526e393ab716b630ba32b9ba173539b7b760891b6020830152610fbc565b6103fc565b610d3791923d8091833e610cdc8183610183565b90386103f0565b5094939250505015610d98576001600160a01b03811615610d5c5790565b60405162461bcd60e51b8152602060048201526014602482015273139bc818dbdb9d1c9858dd0819195c1b1bde595960621b6044820152606490fd5b60405162461bcd60e51b815260206004820152603160248201527f4e6f2072756e2d6c61746573742e6a736f6e2066696c6520666f756e6420666f604482015270391039b832b1b4b334b2b21031b430b4b760791b6064820152608490fd5b3d908183823e610e078282610183565b60208183810103126100f05780516001600160401b038111610fa757828201601f828401011215610fa7578082015191610e408361027a565b94610e4e6040519687610183565b838652602086019285830160208660051b83860101011161011e57602081840101935b60208660051b83860101018510610e8f57505050505050503861038d565b84516001600160401b038111610fa75760a0858401820189870103601f190112610fa7576040519060a082018281106001600160401b03821117610f93576040526020818588010101516001600160401b038111610f8f57610efd9060208b89019184888b01010101610291565b82526040818588010101516001600160401b038111610f8f57610f2c9060208b89019184888b01010101610291565b60208301526060818588010101516001600160401b0381168103610f8f57604083015260209283928392608090610f7e9060a090610f6f8c8b01820185016102d6565b6060860152898c0101016102d6565b908201528152019501949050610e71565b8580fd5b634e487b7160e01b86526041600452602486fd5b8380fd5b9081518110156102f7570160200190565b909181518351811090811561108a575b50611082576000925b8251815181039081116110505784116110795760019260005b825181101561106f57808601808711611050576001600160f81b03199081906110179085610fab565b5116906110248386610fab565b51160361103357600101610fee565b5092509260005b6110665760001981146110505760010192610fd5565b634e487b7160e01b600052601160045260246000fd5b50915050600190565b509293909361103a565b50915050600090565b915050600090565b90501538610fcc565b90916110aa6102d393604084526040840190610209565b916020818403910152610209565b81601f82011215610275578051916020916110d28461027a565b936110e06040519586610183565b808552838086019160051b8301019280841161027557848301915b84831061110b5750505050505090565b82516001600160401b03811161027557869161112c84848094890101610291565b8152019201916110fb565b51906001600160a01b038216820361027557565b919060e0838203126102755760409283519160e08301916001600160401b03928481108482111761016d5786528395815184811161027557820183601f8201121561027557805160209161119e8261027a565b916111ab85519384610183565b8083528383018460059260051b8401019288841161027557858101915b848310611229575050505050865280830151948511610275576111f160c0959486958501610291565b90860152611200818301611137565b90850152606081015160608501526080810151608085015260a081015160a08501520151910152565b82518b811161027557820188601f19828d03011261027557885190818a018d8111838210176112de578a5261125f898201611137565b825289810151908d821161027557018b603f82011215610275578b898201516112878161027a565b926112948d519485610183565b8184528c8c8501928a1b82010192831161027557908c8c959396949201905b8682106112ce575050838095508201528152019201916111c8565b815181528c9591820191016112b3565b60246000634e487b7160e01b81526041600452fd5b6040519061130082610152565b601a82527f496e7370656374696e67202573207472616e73616374696f6e730000000000006020830152565b600091908291611371604051809261135d60208301956309710a9d60e41b8752604060248501526064840190610209565b90604483015203601f198101835282610183565b51906a636f6e736f6c652e6c6f675afa50565b90604051916020926113b28482816113a581830196878151938492016101e6565b8101038084520182610183565b519020916113d26040519182816113a581830196878151938492016101e6565b519020149056fea2646970667358221220d7b6b49b28ffc5be5d8c748dcc6abda34d86e95b3dc3e1dbd58e2ff9d2dc07a064736f6c63430008190033","linkReferences":{}},"methodIdentifiers":{"RELATIVE_BROADCAST_PATH()":"2aa1c696","get_most_recent_deployment(string,uint256)":"e374cdf1","get_most_recent_deployment(string,uint256,string)":"3d363fe3","vm()":"3a768463"},"id":28}